:1000000090320020A91A000055640000951A0000E3
:10001000951A0000951A0000951A0000951A000024
:10002000000000000000000000000000051C0000AF
:10003000951A000000000000A51B0000951A0000A2
:100040006D1D00006D1D00006D1D00006D1D000088
:100050006D1D00006D1D00006D1D00006D1D000078
:100060006D1D00006D1D00006D1D00006D1D000068
:100070006D1D00006D1D00006D1D00006D1D000058
:100080006D1D00006D1D00006D1D00006D1D000048
:100090006D1D00006D1D00006D1D00006D1D000038
:1000A0006D1D00006D1D00006D1D00006D1D000028
:1000B0006D1D00006D1D00006D1D00006D1D000018
:1000C0006D1D00006D1D00006D1D00006D1D000008
:1000D0006D1D00006D1D00006D1D00006D1D0000F8
:1000E0006D1D00006D1D00006D1D00006D1D0000E8
:1000F0006D1D00006D1D00006D1D00006D1D0000D8
:100100006D1D00006D1D00006D1D00006D1D0000C7
:100110006D1D00006D1D00006D1D00006D1D0000B7
:100120006D1D00006D1D00006D1D00006D1D0000A7
:100130006D1D00006D1D00006D1D00006D1D000097
:100140006D1D00006D1D00006D1D00006D1D000087
:100150006D1D0000034613F8012B002AFBD1181A6D
:100160000138704737B50446164DA3685B6DEBB98F
:10017000A3685B6C03BBA3689B6A002BF5D00122CC
:1001800020460DF1070198470028EEDDA3685B6A61
:1001900023B1012220460DF10701984700220023D8
:1001A00028460DF1070104F03FF9DEE720469847A5
:1001B0000028DDD103B030BD204698470028DAD1B1
:1001C000F8E700BF680100202DE9F0412F48304CCE
:1001D00092B000AF206006F0E6FC40B901212D4A44
:1001E0002D4806F01FF94837BD46BDE8F0812A4882
:1001F00003212A4A06F016F92068836823B19B6D13
:1002000013B1002226499847206883689B6B03B18D
:100210009847206883685B6A13B106222149984792
:100220000024214D214EDFF888804FF0FF334FF03E
:10023000FF322846F91D04F04FF9FB790A2B1BD138
:100240000CB90024F1E704F14803DC19002304F899
:10025000403C6C4688B06A4607F1080191614FF452
:1002600000715661918342F8108F4FF4E6510A48AD
:1002700000F074FFA546E4E73E2CD6D804F148020E
:100280003A4402F8403C0134CFE700BF7C700000E4
:10029000200C0020B475000098730000C4750000A5
:1002A00065010000EE75000068010020F575000092
:1002B000030000012DE9F04F91B0009302F0040318
:1002C0000293C2F3C2030133840705460E46DDF8EC
:1002D00068800392059340F0BB81041D30B107296B
:1002E00009D86FF01B0011B0BDE8F08F01F00706D0
:1002F0003444C6F10806009B4FF000094FF0040A91
:10030000591E4FF0FF334F460193CB465346CDF86D
:1003100010900DB1009A22600598002800F3E88043
:100320009848009A824203D397488242C0F0E08006
:10033000039AA4EB050E92074FEA9E0000F1038199
:100340000F2F00F2B180002D00F0058107F140026F
:100350000DEB020C019A0CF8200C0CF8102C0498F0
:1003600001300490E7E07A285DD84B280ED8472862
:1003700059D829282DD8252852D054D820287AD0C9
:100380002338D0F1000B4BEB000B74E04C382E28D7
:1003900049D8DFE800F0704848484848484848488D
:1003A00048484B484848484848484859484B4B59A2
:1003B0005959704B6D487048184B184848827F4B0C
:1003C00048484B487F0000204FF0000B4FF0040AD4
:1003D00038E001222A38C0B202FA00F010EA0E0F0B
:1003E00049D110F0625C2FD110EA020B43D0604675
:1003F000013C5444B4FBFAF40AFB04F4002D61D030
:10040000A3EB050CA444B4453FF66BAF002868D1BC
:10041000042B47D158F8043B2360042304342AE01A
:10042000019A013A01924FF0000B24E011F8010CFF
:100430006C2834D1002011F8023C83466C2BC5D1C6
:100440004FF0080A5346D3E708F1070828F00708D9
:10045000073424F00704F8E802AB35B106982044CD
:10046000B0423FF63EAFC4E900AB4FF0000B08349A
:100470004FF0080A534611F8010F002878D0BBF15D
:10048000000F7FF470AF2528F5D14FF0010B019BD1
:10049000013301934FF0040AECE7584694E700203B
:1004A0008346A5E7082B02D06FF015001BE708F183
:1004B000070828F00708F8E80223C4E90023082306
:1004C0000834D8E768B9042B02D108F10408A4E77E
:1004D000082BE9D108F1070828F0070808F10808F7
:1004E000EDE7059A013A059258F8042B009210E7BF
:1004F000039A900720D54FF0010CA4EB050E4FEAAC
:100500009E00BEF5007FCFD20F2FCDD8F5B107F1F9
:1005100040020DEB020E019AC0B20EF8200C0EF84C
:10052000102CBCF1000F3FF41AAF60F07F000EF802
:10053000200C09F101090137C5F108024FF6DA7EF6
:100540000434069297E74FF0000CDAE7BCF1000F95
:1005500001D00136EFE7029802360028EBD100986F
:10056000CDE90631FFF7F6FDDDE906310644E2E7A5
:10057000631BB3F5806F97D245B9A6F10804E01864
:10058000B1E600BFC46F0000BC810000029A9B0866
:1005900028602B709DF81030C2B1EB7085F8029086
:1005A000B9F1000F05D0002208A8C5F1010C97424F
:1005B0000ED14FF0000AC5F101030DF1200801939F
:1005C0000DF1300B574512D1601B8CE66B70E5E7DF
:1005D00010F8013B190608D50CEB040EB64503F0E4
:1005E0007F033FF67EAE04F8013B0132DFE7B9F14D
:1005F000000F03D098F90020002A17DB029BD3B12B
:100600001AF80B2004F8012B0022019B1819104442
:10061000B0423FF666AE98F80000009904F8010B6E
:100620002046039206F0AFFC039A14440AF1010A33
:1006300008F10108C6E798F8002055F82230009329
:10064000029B009845F82230FFF784FD421CDCE74E
:100650006FF00D0047E600BF2DE9F04F97B000AFF7
:10066000D7F880B03B62CBF3C0030446894690F8CC
:1006700002A0FA62BB6141B9457800780AEB8000BC
:1006800020444D4517D8A0EB0409E378FB61BAF18B
:10069000000F02D01BF0010F16D1FB6953BBFB6AA0
:1006A0001BB1494620463A6A98474D4628465C3772
:1006B000BD46BDE8F08F461C3046FFF74BFD0130CC
:1006C000304409F10109DCE7626823787A62FA6A4A
:1006D0009900796104EB8301002A40F001810E4604
:1006E0004FF000084D4601EB0A094E454CD101EB95
:1006F0000A0610E01BF0020FD1D023789A007A612D
:10070000626804EB83017A62FA6A002A77D14D4667
:10071000904601EB0A061BF0050F0CBF02230123D4
:10072000FB62FB6906EB430A0BF00203BB62564512
:10073000BCD016F8021B16F8013C54F82390994BD4
:10074000994502D3984B994536D3BB69002B40D0CD
:10075000786A05F054FA00283BD0E9468AB06A4628
:10076000924B53617B6AC2E906314FF400731384E4
:100770008F4B42F8103F00234FF412518D4800F088
:10078000EDFC023DCD46D2E716F8013BF96254F884
:100790002300FFF7DFFCD7F88430F96A01304BB152
:1007A000D7F8883098453EBFD7F8843023F8180032
:1007B00008F10108054498E7BB6923B1786A05F0A0
:1007C0001EFA0028C9D11BF0010F05D1FB6AED1AF2
:1007D000ADE7BB6A002BAAD04846FFF7BBFCD7F8B1
:1007E000843053B1D7F8883098453FBFD7F884207C
:1007F000431C22F8183008F10108054497E7BAF1C4
:10080000000F73D01BF0040673D0D046002607F10A
:10081000480052463B61B96206F0B5FBB96A3B69D4
:1008200001EB0A02BA62FA69F9695200FA60BA6A1F
:1008300002EB41023A610BF00202BA603A69B96A0E
:100840008A4258D162781BF0020F18BF00217A62E9
:1008500008BF4FEA5801B2181BF0010FD2B240F0A6
:100860009F801BF0040F14BF40460020BB616270E4
:10087000A070E17020463A6A7969FB6A9847051EC4
:10088000FFF614AFBB69414623707B6A3A6A637016
:10089000FB6984F802A0E37007F14800FB6A9847FF
:1008A000B0F10008C0F2BA807B69A9EB0A01C91A4D
:1008B000FB683A6AC91AD7E90A0398470028C0F2C8
:1008C000AF804FF0000BA84408EB000507F1380A91
:1008D000B34571D300213A6A0846FB6A9847E5E6BA
:1008E00056464FF0000807F1380092E75646D046CA
:1008F00096E7B04694E7BA6A12F8021B12F8015C58
:10090000BA6254F82500274A904202D3264A904200
:100910001ED3BA6932B1786A7B6005F070F97B68E2
:1009200000288BD1BA6802BB08F1280207F1300C0D
:1009300008F10100944407F1580208F1020852FA44
:1009400080F00CF8101C5FFA88F800F8105C75E76E
:10095000BA693AB1786A7B6005F051F97B68002882
:100960007FF46CAF1BF0010F09D006F1280207F1EC
:100970003000711C161806F8205CCEB25EE71BF042
:10098000040F3FF45BAF08F1280207F1300008F1D3
:10099000010102EB000808F8105C5FFA81F84DE7EE
:1009A000002063E7C46F0000BC8100000F760000E8
:1009B00004000001607300001BF80A3054F8239013
:1009C00087F83730D7F884302BB3D7F888309B4579
:1009D00021D2D7F8843033F81B8001213A6AFB6AB0
:1009E00007F13700984700281ADB0544B8F1000FDB
:1009F00006D14846FFF7AEFB00F101081FFA88F860
:100A0000414648463A6AFB6A9847002808DB054495
:100A10000BF1010B5CE74FF00008DEE7454645E6C9
:100A2000054643E680B505460E461746984604F04F
:100A30003DFB034606F0BCFA0446DFF81890424638
:100A400049F8003039463046A84754F8090001F00B
:100A500093F800BF080000002DE9F047058B04461D
:100A60002807904611D4022905F0070540F0CC80F4
:100A7000204605F062FB78B10138218B042811D89B
:100A8000DFE800F0C2106D85950001290CBF45F02C
:100A9000100545F02005258388F31188BFF36F8F7B
:100AA000BDE8F08701F0070AAA4500F0A5800027FD
:100AB000B9463E46A368002B00F0BC8041F0080117
:100AC000218388F31188BFF36F8FA168002900F09C
:100AD000BA800D68002900F0B680334652462046A1
:100AE000D1F80480C047002D76D02B6829461D46DA
:100AF000F0E701F007035A1F012A1BD8002221F05A
:100B00000701062B276889B2C4E9002209D13B46B8
:100B100003E0628B013262831B68002BF9D141F044
:100B200002012046218305F008FB00287AD041F01D
:100B3000200176E0042B0AD121F0070189B220467A
:100B4000218305F0FAFA10B141F020012183218BB5
:100B500001F0070AAA454FD00027B946AAE7236942
:100B600021F0070141F00601062DD3F80090218302
:100B70002DD1B9F1000F3FD041F00801218388F356
:100B80001188BFF36F8F20463949C84729E021F00B
:100B90000701236941F0040189B2042DD3F80490C0
:100BA0002183E6D000274FF0040A3E4682E721F079
:100BB0000701236941F0050189B2052DD3F808909A
:100BC0002183D6D000274FF0050A3E4672E7002762
:100BD0004FF0060A3E466DE72B4687E7B9F1000F56
:100BE000D1D1EFF31188202383F31288BFF36F8FE5
:100BF000238B23F008032383258BEA062ED525F0CB
:100C00001003238305F007056669218B002EBFF6CC
:100C100070AF00232768C4E9003321F0070141F0D9
:100C200001012183218B4FF0000901F0070AAA4539
:100C30007FF440AF002F9CD041F00801218388F35E
:100C40001188BFF36F8F002FC8D03D6839463346F7
:100C50005246204605F09DFA2F46F4E7AB067FF595
:100C60001BAF25F02003238305F0070500E700BF35
:100C7000BF6100002DE9F047044607464FF0010927
:100C8000DFF8508014B93846BDE8F08794FAA4F52F
:100C9000B5FA85F509FA05F32E0108EB05156FEA9B
:100CA000030A24EA03042B7B002BEBD058F8063010
:100CB0001B694BB94644736804222846196807EA41
:100CC0000A0705F040FBDDE7284698470028D9D100
:100CD000F0E700BFA873000030B5002289B00F49CB
:100CE0000F4806F020F9002200230024CDE9062356
:100CF0000E230C4DCDE903344FF480622846CDE934
:100D00000144094B0949009403F0D6FE08492846DE
:100D100006F007F8204609B030BD00BF350D0000D1
:100D2000280A0020A00100201D10000050150020FE
:100D3000C3760000014803F003BE00BF900100200D
:100D40002DE9F047804621480F4605F0E2FA0646B5
:100D5000002833D000252846BDE8F087237B83B1E7
:100D60002368DB680BB120469847636883F80690D8
:100D700023681B69D3B9636804222046196805F00B
:100D8000E2FA013610345445E8D3B8F1000FE2D04E
:100D9000002DDFD02846FFF76DFF0546002FF7D066
:100DA00000214FF4A47006F052F8F1E7204698476E
:100DB0000028E0D009FA06F31D43E2E705464FF0AC
:100DC0000109034CDFF80CA0DDE700BF340C002064
:100DD000A8730000A873000010B5044C237813B961
:100DE000034803F0ADFD0123237010BD2015002042
:100DF0009001002010B50446094805F08AFA3CB17C
:100E0000084BD3E8EF1F0139C3E8E21F002AF8D1ED
:100E1000054806F094F8BDE81040044803F090BD82
:100E20002C0C0020300C0020280A0020900100200B
:100E300000200146034BD3E8EF0FC3E8E21F002A6E
:100E4000F9D170472C0C002070B5FFF7F1FF054673
:100E5000074C084EB44200D370BD63685B792BB178
:100E600023685B6813B12946204698471034F1E7A0
:100E7000A8730000A873000010B5044C0449204674
:100E800004F0F4FF034B1C6010BD00BFDC00002029
:100E9000B8730000240C002000230C4A10B5137016
:100EA0000B4A13600B4A13600B4B0C4A1A60FFF796
:100EB000E3FF0B4B0B4918468B4200D310BD1A1AA7
:100EC0005C681211013222711033F5E72115002000
:100ED0002C0C0020300C0020000000200F630000CC
:100EE000A8730000A87300000146002200230148F7
:100EF00004F0DDBFDC000020014805F076B800BF3B
:100F0000DC000020024B0146186805F0C2B800BFA3
:100F1000240C0020014805F0F7B800BFDC000020D9
:100F200070B5274B1878002849D0FFF7E5FF054634
:100F3000002841D1234B244C1B68002B19DD05F000
:100F4000F0FF4FF47A72A0FB020302FB0131C30BE6
:100F500043EA4143D4E900209B1A40F2E9324FEAC8
:100F6000D13161EB0001934271F1000101D3FFF730
:100F70006BFFD4E9003213F57A7342F10002C4E941
:100F80000032BDE87040FFF7C5BF63685B7923B1ED
:100F90002368294620461B6898471034B442F4D38E
:100FA0002846FFF7AFFF094BD3E8EF1F0139C3E82D
:100FB000E21F002ABED0F7E7054C064EEEE770BDF3
:100FC000201500202C0C0020200A0020300C0020CE
:100FD000A8730000A873000070B50D4D297861B9A1
:100FE0000120FFF7ADFE0B4C0B4EB44206D3FFF7CA
:100FF00097FF0028FBD101232B7070BD63685B79DC
:101000001BB1236820469B6898471034EDE700BF6A
:1010100021150020A8730000A873000000212DE90D
:10102000F0470846FFF78CFE044658B340F2676865
:101030004FF0000905F0BCFF1B4B1C4A1B58136006
:1010400033B11B4B1B68092B02DD1A4803F078FCF7
:101050000025194FDFF85CA044B12046FFF70AFED7
:10106000044618B94FF0FF384FF0FF39FFF758FF2B
:10107000064628B9B5B942464B46504603F094FCA3
:101080003546E9E74FF0FF384FF0FF39D2E72B68DC
:101090009B691BB100222846114698471035BD4276
:1010A000F5D3E8E7054DFAE708000000280C00201A
:1010B000300C002090010020A8730000A8730000ED
:1010C00013B5184805F025F9174B1B7873B1EFF3EA
:1010D0001184202383F31288BFF36F8FFFF720FF63
:1010E00084F31188BFF36F8F02B010BD0F4B1B68E4
:1010F000002BF9D050B9002200230D48CDE9002380
:101100004FF40042002304F0BBFAEDE70928EBD1CD
:10111000074805F014FF074802B0BDE8104003F08F
:101120000FBC00BF300C002021150020280C00202F
:10113000280A00209001002010B5064B04461B68C9
:1011400098472146A060044804F030FFBDE81040F5
:10115000FFF7B6BF00000020DC0000202DE9F04FB3
:101160008FB0C1F34A2804AF0D469146B8607B604A
:101170000C0DB8F1000F63D000264FF0040B4FF0B8
:101180000A0A07F11403C7F80C80C7E907667E62F4
:101190000193CDF808B0CDF800A007F11C0332464A
:1011A0004846F968FFF758FAB0F5006F03461CD3BC
:1011B0006C468AB0D9F8041004AB26481A46C3E935
:1011C000050140F2FF71D9614FF400711984224B7F
:1011D00042F8103F4FF4125133462048FFF7BEFF4C
:1011E000A5462C37BD46BDE8F08FC0F30A0804F1D0
:1011F0001700184420F0070080083B60FFF774FEDA
:1012000068F35325044690B13B6800F11001C7E92B
:10121000083607F11403F961CDE900A3CDF808B051
:1012200048460F4AF96807F11C03FFF715FA68F3FF
:1012300053252A4620467B68B96805F0A3F8D0E715
:1012400004F1170020F007008008FFF74DFE044668
:10125000EDE700BFD87600000400000170730000C5
:10126000596300002DE9F04F87B00446DDE9105ABC
:10127000DDE91279934698460391BFB13B46524649
:1012800010210020CDF80090CDF81490FFF712F84F
:10129000B0F5006F06460AD340F2FF730221174AE9
:1012A000174807B0BDE8F04F05F0C5B83E4605F158
:1012B0001700304420F007008008FFF715FE04F007
:1012C00007040BF0070BE40044EA8B1444EA4624BD
:1012D00044EA0554054640B13FB13B4652463146CB
:1012E000CDF800901030FEF7E5FF43462246284631
:1012F000039907B0BDE8F04F05F044B81777000038
:1013000070730000014B036000207047CC73000035
:1013100008B5044804F098FCBDE80840024804F011
:1013200093BC00BF4F77000084770000014804F0B1
:1013300043BA00BFCC73000038B5044618B90F4B50
:101340000F485B6898476168B1F5683F10D0B1F508
:10135000680F0DD00B4DA9420AD011F468612068C6
:1013600007D00146084805F074FC0023236065603F
:1013700038BD142205F014FEF9E700BF7400002008
:10138000B27700002C5F5CA93811002008B560B36B
:101390004368B3F5683F0ED0B3F5680F18D0144A10
:1013A000934220D000684FF0FF324FF0FF3303F03C
:1013B0002BF958B115E001220368D3E8EF1F00298B
:1013C00003D1C3E8E02F0028F7D10AD1002008BDDF
:1013D0000368084A1B7803F5807352F82330002B0A
:1013E000F4D00548F3E70548F1E76FF4E040EEE795
:1013F0002C5F5CA900000350E98FFFFFEA8FFFFF1D
:1014000008B520B34368B3F5683F09D0B3F5680F5A
:1014100013D0114A93421DD0006803F007FA14E07C
:1014200000220368D3E8EF1F012903D1C3E8E02FAE
:101430000028F7D109D0094808BD00210368084AEF
:101440001B7803F5807342F823100020F4E76FF453
:10145000E040F1E70348EFE72C5F5CA9E98FFFFF6D
:1014600000000350EA8FFFFF10B5044618B91D4B6A
:101470001D485B6898476368B3F5683F2FD0B3F5A4
:10148000680F2CD0194A934219D1236803BB4FF03F
:10149000FF324FF0FF332146154802F097FF08B99D
:1014A00023681BB90F4B13485B689847142200212F
:1014B000206805F075FD4FF46863636008E0B3F5DC
:1014C000683F0DD83A2B03D040F6BA629342DED182
:1014D000206805F00DFC636843F03A03636010BDBB
:1014E000054AF3E774000020B27700002C5F5CA986
:1014F00038110020D87700003A00003A08B50649B4
:1015000040231422054805F096FBBDE80840044935
:10151000044804F0C3B900BF380C00203811002083
:10152000D4730000E87300002DE9F04706460C462E
:1015300000AF002936D0D1E90012E9468AB06D46E5
:10154000A3684FF0050AA8461F48C5E90723C5E967
:10155000050148F810AF002342464FF421511B48C3
:10156000FFF7FCFDD4E90312CD466369AD46184888
:10157000C5E90723C5E90501C5F810A000234246C7
:101580004FF421511148FFF7E9FDCD46E3690121F0
:10159000104A0E4804F04FFFA36901210E4A0B4880
:1015A00004F049FF012E07D1EFF305830B4A3146C2
:1015B0000648103B04F03FFF2146304602F05AFD3A
:1015C000BD46BDE8F08700BF0578000088730000C5
:1015D000347800006378000072780000A078000082
:1015E00030BFFFF7FDBF00BF2DE9F04105460B4EB0
:1015F000DFF82C80324606EB0807CC1B2046094951
:1016000005F0C1FCA01942460021083C05F0C8FCC9
:101610002C6707F10800BDE8F08100BF0000000062
:1016200004000000A8730000054B5A699B689A42A9
:101630001FBF044A536843F080535360704700BF94
:101640001C13002000ED00E070B52A4C06460D4644
:1016500029482A4904F005FFA36ADB0647D5264836
:10166000274904F0FEFE1120A36A1C0704D5224876
:10167000244904F0F6FE12201E4CA36A990712D5E5
:1016800021491D4804F0EDFE636BA26A120609D5DC
:1016900001211E4A184804F0CEFE1EB1A36A23F0B1
:1016A0008003A3621320134CA36ADE0704D51248FB
:1016B000174904F0D6FE1420A36A9C0604D50E48F0
:1016C000144904F0CEFE15200A4B9A6AD10658BF81
:1016D0009A6A9A6A920642BF5A6A22F400525A6281
:1016E0009A6A42F0FF029A6200232B7070BD1020AC
:1016F000BAE700BF00ED00E088730000B378000097
:10170000C9780000FC7800000F79000027790000FC
:101710003D7900005C79000010B5244C244925482F
:1017200004F09FFEA36A99013ED52248224904F0A5
:1017300098FE1E20A36ADA0104D51E481F4904F052
:1017400090FE1F20194CA36ADB0204D519481C49DE
:1017500004F087FE0220A36A1C0304D5154819492A
:1017600004F07FFE2120114CA36A590304D51148CF
:10177000154904F076FE2220A36A9A0304D50D4889
:10178000124904F06EFE2320084CA36ADB0304D543
:1017900008480F4904F065FE2420A36A6FEA03435A
:1017A0006FEA1343A36210BD1D20C3E700ED00E004
:1017B0008B79000088730000A3790000B6790000DF
:1017C000D0790000FA790000187A00003D7A000014
:1017D000577A000070B5294C06460D46284829491D
:1017E00004F03FFEA36AD9043CD52548264904F0FD
:1017F00038FE1720A36A1A0504D52148234904F0AE
:1018000030FE18201D4CA36A9B0512D51C482049A8
:1018100004F027FEA36BA26A100409D501211D4A1A
:10182000174804F008FE1EB1A36A23F40043A36224
:101830001920124CA36A590504D51148164904F021
:1018400010FE1A20A36ADA050ED50D48134904F0DC
:1018500008FE1B20094A936A43F47F4393620023E6
:101860002B7070BD1620C5E7A36A9B04F2D504480F
:101870000B4904F0F6FD1C20ECE700BF00ED00E092
:1018800088730000827A0000987A0000FC780000DB
:10189000A97A0000C27A0000D77A0000F27A00002C
:1018A0005C7900002DE9F0418AB0654B0446D3F81D
:1018B0000480002600AFC8F3080586F31188BFF343
:1018C0006F8F02F07F43B3F17F4F07D102F00C031B
:1018D000082B12D15B495C4804F0C3FD0026344656
:1018E0000023FB71EB1E092B00F28980DFE803F077
:1018F0000A7F827B87878787878510074CBF0C46C6
:101900000126EDE75149504804F0ABFD00234C4D52
:10191000FB71EB6A9A0705D54D494B4804F0A1FDD0
:10192000002331E0EB6A002B01DA4A49F5E7EB6A64
:101930005B00F5D54849444804F093FD6B69A26902
:1019400043F480736B61BFF34F8FBFF36F8F6B698D
:1019500032F8022C23F480736B61BFF34F8FBFF317
:101960006F8F4DF602739A4207D0AB6ADBB26BB34E
:101970000120F91DFFF768FE37E023680121374A8F
:10198000314804F058FD2368FA79DAB907F10805FF
:1019900004F1200C2A4620686168083403C26445BB
:1019A0001546F7D17A6A002E45D0C2F3080121B955
:1019B0006FEA52226FEA42227A62184607F1080162
:1019C000FFF7B2FD2837BD46BDE8F081AB6A13F4DE
:1019D0007F4F04D00120F91DFFF7FCFE05E0AB6A44
:1019E000B3F5803F9CD3FFF797FE0346CCE700207A
:1019F000F91DBFE70020F91DEEE719498DE7194AE7
:101A000018F4F87FE8468AB0174B18BF13466A46A9
:101A10001649103DC2E905134FF400731384144BAB
:101A2000D56142F8103F00234FF411510648FFF7EB
:101A300095FBC54674E722F4FF7222F00102BBE772
:101A400000ED00E0387B000088730000637B00003D
:101A50007A7B00009B7B0000A97B0000C87B000014
:101A6000E47B00001F7B00000A7B0000087C000074
:101A700004000001064B5A6942F010025A615A698B
:101A800042F480625A615A6922F008025A61704732
:101A900000ED00E0EFF30880EFF3098101B5724635
:101AA000FFF700FF01BD00BF002080F31488BFF3E3
:101AB0006F8F002080F30A8880F30B880F4880F333
:101AC000088801F071FC00200D490860BFF34F8FBA
:101AD00000F02CF8202080F311880A484FF40061B0
:101AE000401880F30988EFF314800221084380F343
:101AF0001488BFF36F8F00F0D7F8000090320020F9
:101B000094ED00E050190020002318460649D1F852
:101B10009020C2F30722934200DB7047C1F898304F
:101B2000C1F8A0000133F6E700ED00E010B572B691
:101B3000002484F31388FFF7E7FF23464FF0FF30BC
:101B40000C4A03F120010133102B42F82100F8D197
:101B500000234FF0FF30074A03F160010133102BDF
:101B600042F82100F8D162B6BFF34F8FBFF36F8FF9
:101B700010BD00BF00E100E0084B9B6883420BD121
:101B8000EFF3058343B1064B5A6842F080525A6026
:101B90005A6A22F400425A6203F08EBA1C130020E3
:101BA00000ED00E014498A684FF030001044EFF374
:101BB000098C80E8F01F202080F31288BFF36F8F1C
:101BC0000E4F4FF000664A698A603E60106F0C4C01
:101BD0002060506F0023536780F3118802F13000BA
:101BE00090E8F01F8CF3098802F1000004B504F0BE
:101BF00040FCBDE8044070471C13002004ED00E0E9
:101C0000541100201EF0040F0CBFEFF30880EFF317
:101C10000980816911F8021C0229FFD001B57246C2
:101C200004F014FC01BD00BF40B2002807DB012313
:101C30004109034A00F01F00834042F821307047F9
:101C400000E100E0054B420953F82220012300F097
:101C50001F0003FA00F01040704700BF00E100E0F1
:101C600040B2002801F10101ACBF00F16040064B19
:101C70004FEA4111C9B2ABBF00F5614000F00F005F
:101C800080F800131954704714ED00E0044B054A26
:101C900023F07F039360BFF34F8FBFF36F8F7047C5
:101CA0000000000000ED00E008B5FFF7EFFF074A75
:101CB000D2F8883023F47003C2F8883002F0C8FAF2
:101CC00003F01CFB00F046F802F002FB00ED00E020
:101CD00042F8203C009B0B4942F81C3C019B21F040
:101CE000010142F8183C029B42F8081C42F8143CDF
:101CF0004FF0807342F8043C0023203A02654367AA
:101D0000704700BF250A000000B50B4B15469860D0
:101D1000026F0A4B0E461A60036E83F30B882C4643
:101D200086F309880020064B9847204600210022B0
:101D30000023044C204700BF1C1300205411002036
:101D40007B640000250A00001022014B1A617047D5
:101D500000ED00E0002320210348C2180133452B89
:101D600082F80013F9D1704700E100E008B5EFF305
:101D70000583064A103B02EBC30152F83300496861
:101D80008847BDE80840FFF74FBC00BF9C700000CB
:101D90001FB5094C094A23460121094800F086F97C
:101DA00000230393074B0121E41A01A80193029435
:101DB00000F086F904B010BD0000072000000020EC
:101DC000F8730000A0010020F8B50C7A0B6804F04D
:101DD0001F0223F01F031A43CB68640923F01F037B
:101DE00043EA4403124C43F00103C4F89800C4F8DA
:101DF0009C20C4F8A0300B7A00AF8CB00D6803F0C3
:101E00001F046A46C9685B09C2E90A310823094E02
:101E1000C2E908545661084EC2E9066042F8103F14
:101E200000234FF482410548FFF798F9BD46F8BDFD
:101E300000ED00E01F7C0000267D000080730000A4
:101E4000F8B5164A0346D2F890200D46C2F3072291
:101E5000013A904200AF09D90121114A114804F01A
:101E6000EAFA6FF015042046BD46F8BD6E4688B00C
:101E700004466A460C4B53610C4BC2E906300423FE
:101E800042F8103F00234FF404510648FFF766F96B
:101E90002946B5462046FFF797FFE4E700ED00E04E
:101EA000447C0000807300006A7C0000327D0000EA
:101EB000F0B585B06E4600AF88B004460D466A4660
:101EC000134B5361134BC2E90630042342F8103F11
:101ED00000234FF404511048FFF740F929686B685C
:101EE0002A8968893960013B21F01F010B4402F007
:101EF0001F0242EA4012394623F01F03B54620462E
:101F00003A72FB60FFF79CFF1437BD46F0BD00BF7F
:101F10008F7C00004B7D0000807300002DE9F04FA6
:101F20008946144606464FF00008514D85B0C84515
:101F300027DAD6F804A0BAF1000F44D0BAF11F0F87
:101F400017D91AF01F0F14D1D6F800B01BF01F0FCD
:101F50000FD1584604F0CDFA07460AEB0B000138C2
:101F600004F0C7FA874210D06FF01507414A3B468C
:101F700001E04346404A0121404804F05CFA6FF01A
:101F80001504204605B0BDE8F08F17F1160FEDD00F
:101F9000BC42EBDDC5F89870D5F89C10C5F8987078
:101FA000D5F8A03021F01F0143F01F0BD6E9003215
:101FB0001A44994202F1FF3A1DD1D34507D1314667
:101FC000F8B2FFF775FF08F101080C36AFE73146AC
:101FD000C5F89870D5F89C3022F01F0203F01F035B
:101FE0001343C5F89C30E0B2FFF762FF10F1160F03
:101FF000C5D0441CE7E7C5F89870D5F8A020013B90
:1020000023F01F0302F01F021343D3453146E0B211
:10201000C5F8A030E8D0FFF74BFF10F1160FAED097
:10202000C5F89870D5F89C209DF808300BF1FF3B5F
:1020300062F304038DF80830D5F8A0309DF808202D
:102040005B0863F347128DF80820D6E90032134489
:10205000009323F01F035B44A3EB0A03013023F03A
:102060001F036946C0B20393FFF7EAFEBEE700BF55
:1020700000ED00E0D97C0000B67C00008073000019
:102080000522044BC3F89420BFF34F8FBFF36F8F2B
:10209000704700BF00ED00E0BFF35F8F0022024BEE
:1020A000C3F89420704700BF00ED00E010B5034C6A
:1020B0002278FFF733FF207010BD00BF22150020EB
:1020C0002DE9F74F294D8A4606464FF00008AB46EA
:1020D000274FD0451BDAD6F80490B9F1000F3FD056
:1020E00031680846019104F004FA0199044609EBAD
:1020F0000100013804F0FDF984424FF014021D4B39
:1021000008D002FB08F36FF015024BF8032003B070
:10211000BDE8F08F14F1160F2C60F8D01978A142A9
:10212000F5DD02FB08B0C7F89840C7F89840D7F82B
:102130009C4000F10801007B64F304000871D7F8AB
:10214000A0000C79400860F347140C71D7F89C107C
:1021500021F01F016960D7F8A01021F01F0129614B
:1021600008F1010814350C36B3E700BF5811002000
:1021700000ED00E0221500202DE9F04186B04F4C23
:102180004F4ED4F890303568C3F307239D4200AF1B
:1021900000F29180E84688B0D4F890306A46C3F3E4
:1021A0000723D3610423474951614749916142F8AC
:1021B000103F00234FF404514448FEF7CFFFC546BB
:1021C000FFF76AFF424BC4F8C0300024AC4217D37B
:1021D000404C381D2570FFF795F800250646DFF8BE
:1021E000F880AE4214D1002023783449D1F89020F1
:1021F000C2F30722934258DBFFF742FF002031E091
:102200007168204601EB0411FFF7DEFD0134DDE7C4
:102210007968280101EB0513DA6802EA0802B2F5D1
:10222000001F23D0B2F5800F2DD0B2F5801F3AD118
:102230005A689B680958013B22F01F0003440120A3
:10224000844623F01F0340EA4C10C7E9022138748A
:1022500007F1080120787B61FFF7F2FD00281FDA03
:102260006FF015001837BD46BDE8F0815A689B68CD
:102270000958013B22F01F0003444FF0020C0120DB
:1022800023F01F03DFE75A689B680958013B22F0DF
:102290001F0003444FF0000C062023F01F03D2E779
:1022A00023780133237001359BE7C1F89830C1F8DA
:1022B000A00001339AE74FF0FF30D3E700ED00E0D4
:1022C00004740000FC7C0000177D00008073000097
:1022D000AAFF4400221500200000F0FF08B50649BF
:1022E000064821F00701C1F1005202F5E02203F097
:1022F0002EFC002008BD00BFD73200206C1100204A
:10230000054B03EB8000D0F8003223F0E04343F0AC
:102310004053C0F8003270470025845005232DE952
:10232000F041224D00AF2C78DFF884800134B4FBFB
:10233000F3F303EB8303E41A04F08BFB1D4A1E4EF8
:102340001378D3B158F82430C01A072815D8337839
:102350008BB96C4688B06A46184951611849916139
:10236000032142F8101F4FF4C8511648FEF7F6FE3D
:102370000123A5463370002015E04FF05023D3F819
:10238000141141B10021C3F81411D3F814312C7089
:102390000CB9012313702C7804F05BFB002348F880
:1023A000240001203370BD46BDE8F08124150020D3
:1023B0007811002023150020251500206F7D0000D6
:1023C0009C7D000090730000012208B50B4B0C4966
:1023D000C3F8002502230020C1F8D036FFF790FF94
:1023E0001046FFF78DFFC1F80427C1F80429C1F892
:1023F000002BBDE8084000F0A5B800BF0010005059
:102400000040005007B50DF1070001F0F1F80F4B47
:10241000984218D14FF480620D4B0E49C3F8B8258D
:102420004FF40062C3F83C259DF8070004F028FB38
:102430009DF80700084904F01EFB01209DF80730B5
:10244000984001F0CFF803B05DF804FB0000AD0B3D
:1024500000A002502CA0025028A1025048B1054B08
:10246000054A1B68B3FBF2F35843044B43F00103E6
:10247000184770474800002040420F00B07300002A
:10248000002170B5104C114D114E000714F8013B9E
:1024900003F01F025B090FD0012B0FD1334603EB72
:1024A0008203D3F80022013122F0E04202430429E2
:1024B000C3F80022EAD170BD2B46F0E7002380323A
:1024C00053F82230FFDE00BFBC7D000000258450A1
:1024D000002884502DE9F041064601200D46FFF703
:1024E000CFFF4FF47F03D3F83021D3F83431072ADC
:1024F00020D1023B032B02D8114AD35CD3B14FF059
:1025000050244FF0010800270520C4F81886C4F8AD
:10251000147604F0AEFA4046C4F8148604F0A9FA22
:10252000C4F81476C4F8187630462B46BDE8F0415E
:10253000002118474FF050230022C3F81426F3E778
:10254000B87D00000149024803F046BE2C7400002B
:102550008C110020084B70B5C31A0D4607499B101B
:10256000044659434022064803F0E6FF2B46014645
:102570002046BDE870401847BC110020B76DDBB69F
:102580001C700000402373B50B4C0093041B0B46DA
:102590000D460A49A41061430646094A094803F05A
:1025A000F6FF011E05DA30462B4602B0BDE870404A
:1025B000184702B070BD00BFBC110020B76DDBB67C
:1025C000F76500001C70000010B5EFF311842023A4
:1025D00083F31288BFF36F8F074A136823F0020159
:1025E000DB07116002D4012004F056FA84F311884D
:1025F000BFF36F8F10BD00BF5C1200202DE9F843C0
:102600000022012106460520FFF72AFB114801F0B0
:102610006FF8114B984219D101F07AF800244FF06D
:102620001C090C27DFF834803569414609FB04504A
:1026300003F0D2FD002807DB012307FB04551C44EF
:10264000042CAB67F0D10020BDE8F8836FF00400E4
:10265000FAE700BFA12700000000AD0B38740000AE
:102660001FB500220123CDE902236B46084ACDF8AD
:1026700000D0CDF804D003F0B7FF002805DB4FF4FD
:1026800080420023684602F08FF905B05DF804FB34
:102690002D6600000C2100232DE9F04141431B4A27
:1026A00005460A44D2E91C6800AF1367EFF31180B6
:1026B000202484F31288BFF36F8F946F04F0C0045A
:1026C00044F00204946780F31188BFF36F8F104ABF
:1026D0006C460A448AB091686A460E4850610E48BA
:1026E000C2E9060140F2013111840C4942F8101F81
:1026F0004FF414510A48FEF731FDA5461EB142467B
:1027000029460848B047BD46BDE8F081BC1100200D
:1027100044740000C07D0000D67D0000040000016C
:10272000687300001C70000010B4EFF311822023C6
:1027300083F31288BFF36F8F1748016841F00204DA
:102740000460C80707D482F31188BFF36F8F01209C
:1027500010BC00F0F5BF4FF05021D1F80C04D1F8B7
:102760000C14C907EFD5EFF3118083F31288BFF380
:102770006F8F0A498B6F03F0C00343F002038B672E
:1027800080F31188BFF36F8F82F31188BFF36F8FCF
:10279000002010BCFFF77EBF5C120020BC1100209F
:1027A000092813D8DFE800F00510121212121212D5
:1027B0000E0C074B986F10F0070007D1FFF76ABFA8
:1027C0000220FBE70320F9E70120F7E7704700BF8D
:1027D000BC1100202DE9F041012207463649D1E81D
:1027E000EF3FC1E8E02F0028F9D133B9334934482D
:1027F0004B60CB608A6003F002FD7B1E012B2BD85F
:10280000012F07D14FF05023D3F81C3403F00303FA
:10281000022B21D004F07FFA0546F8B9294B1B782A
:10282000E3B14FF0502302220646C3F808234FF0CD
:102830005024DFF89480D4F81824D4F81834D20344
:1028400015D503F00303022B01D0012F0FD16DB377
:1028500086F31188BFF36F8FBDE8F081EFF3118627
:10286000202383F31288BFF36F8F0125DFE7C5B103
:10287000304603F022FED4F81835DBB2012BDAD152
:10288000D4F80421002AD6D00022C4F80421D4F8B8
:1028900004210222C4F818252022C8F88021A36050
:1028A000C9E70021212004F0D2FAE4E74FF05023D9
:1028B0000222C3F80423CFE7B8110020A81100209A
:1028C000D81100204815002000E100E0F0B51646C0
:1028D000426801F01F04107B87B044EA401410697D
:1028E000002871D0B6F5001F02F1100506D121466F
:1028F000284604F051F9002007B0F0BD0027B6F5D6
:10290000800F01A80197476039D1B3F1007F14BF50
:10291000052304238DF804300023CDE90403039339
:1029200093680DF1030723FA01F111F001013DD184
:10293000B6F1A07F3AD104F01F03620903F18003CE
:1029400028D0012A46D1254A52F82330DB072DD45E
:102950003A462146284601F0FDF9214B98421BD00A
:1029600002972146284603AA01F0ACF81D4B984275
:102970002DD101222146284601F044FABBE7B3F1EC
:10298000C06F05D0B3F1007F14BF01230223C1E75C
:102990000323BFE7144AD7E73946284601F02AFA4D
:1029A000104B9842DCD06FF00B00A5E73A46214669
:1029B000284601F0CFF90B4B9842D2D128469DF81A
:1029C000031001F00FFACCE76FF0850094E76FF089
:1029D000150091E751F82330FFDE00BF0028845036
:1029E0000400AD0B0000AD0B0025845042090346E6
:1029F00070B502D0012A17D070BD0D4E32695168F2
:102A00000029F9D0012503F01F030C689D4000291F
:102A1000F2D08A682A4002D030464B6898472CB1E1
:102A2000236821461C46F2E7024EE7E72346F8E713
:102A30005C7000003C70000038B545682B69B3B18C
:102A40001035284601F0C4F9044680B901462846ED
:102A500001F09AF9084B98420BD1224628460749C3
:102A600001F072F9224605210D20FFF7F9F8002048
:102A700038BD6FF00400FBE70000AD0BED2900004E
:102A80002DE9F04340F206354668D00648BF0320E2
:102A9000337B02EA050558BFC2F3401087B001F04E
:102AA0001F07B5F5837F144647EA43178DF80300E7
:102AB00043D00FD8062D18D007D8B5B1022D3ED07F
:102AC0006FF0150007B0BDE8F083B5F5807FF7D152
:102AD00001250AE040F20222954232D0B5F5407F4E
:102AE00031D0B5F5007FEBD1022522032DD501238E
:102AF00072688B409360326982BB07F01F037F09C5
:102B00002AD0012F77D13E4A02EB830284F480332E
:102B1000D2F80012C3F30043C4F3404444EA430430
:102B200021F4706144EA800421F00F0144EA052396
:102B30000B43C2F800320020C4E70725D5E704257F
:102B4000D3E70525D1E70325CFE7630341BF012381
:102B500072688B40D360CEE72A4AD5E710363946F3
:102B600030460DF1020201F0F5F814F4403F8046C2
:102B70000CD13946304604F00DF8234B9845DAD194
:102B800030469DF8021001F02DF9D4E74FF000090E
:102B900001AB3946304603AACDE90439CDE90199A4
:102BA000CDF80C9000F08EFF174B984288D114F4AA
:102BB000003315D09DF8033084F48034C4F300440E
:102BC0008DF80E3039464B46304603AA8DF80C502E
:102BD0008DF80D4001F036F80B4B9842CDD06FE7E1
:102BE000CDE9043339460DF10303304603AA0393BC
:102BF00000F068FFF0E7803352F82330FFDE00BFBB
:102C000000288450002584500000AD0B036803F0B9
:102C10001F025B09026004D0012B034818BF00208B
:102C200070470248704700BF002884500025845038
:102C30002DE9F04F1546834640F2FF18DFF88891E2
:102C4000DFF888A185B000EB8101594503D1002050
:102C500005B0BDE8F08FDBF80030C3F3C322082ACB
:102C6000C3F3080400F2AA801B0E444508BF4FF0CE
:102C7000FF3419F80270222B00F2A380DFE803F082
:102C800012191F22252B22A1A1A1A13A67A1A1A15E
:102C9000A1A1A1A1A1A16A7F8285A1A1A1888F92F2
:102CA00095989B00C5F80C45601C5DD10BF1040B99
:102CB000CBE7C5F81445621CF8D000265DE0C5F8E6
:102CC0000845F1E7C5F81045F5E7631CC5F8084568
:102CD000ECD0002604E0661CC5F80C45E6D00126C1
:102CE00003A80394FFF792FF0122039B02FA03F368
:102CF000C36008E0C5F80845002FDCD1631CD5D0BF
:102D0000002606273246DBF80030039403F4004027
:102D1000002818BF002203A818BF012601930092C3
:102D2000FFF774FF039C019B00EB8400D0F8004286
:102D3000C3F3412C009A3B0243EA8C03134304EA99
:102D40000A04234343EA4603C0F80032AEE7C5F85D
:102D50000C45D1E7C5F86045601CDBF80030A5D014
:102D6000C3F30043002BBAD0012603A80394FFF756
:102D70004DFF039B06FA03F383603246C3E7C5F8B1
:102D80006445E9E7C5F86845E6E7C5F86C45E3E75B
:102D9000C5F82445621C89D001260022B3E7C5F896
:102DA000284581E7C5F83045F4E7C5F83445F1E733
:102DB000C5F83845EEE7C5F83C4575E76FF01500F6
:102DC00046E76FF0850043E73A7E0000F0F0FCFF35
:102DD0002DE9F84304460E46456803F09CFF6368FE
:102DE0004FF02009D3F8008088B9234A127872B1D5
:102DF0006427606803F021FDF0B9012003F039FE7B
:102E0000013FF6D10021212004F021F8F0E7EFF393
:102E100011810F4689F31288BFF36F8F606803F04A
:102E20000CFDA8B981F31188BFF36F8FEFE781F331
:102E30001188BFF36F8FE5E7EFF311810F4689F338
:102E40001288BFF36F8F606803F0F7FC0028EED0A4
:102E50006B6801225B0744BF4FF48003C8F804335A
:102E6000EB6920461E70E96903F01EFD87F31188A7
:102E7000BFF36F8FBDE8F88348150020F8B505460D
:102E8000002201210B20FEF7EBFE0B20FEF7CCFE0B
:102E90006C680121E06803F0E0FC6B681968236945
:102EA000C1F82435A27D637D207D1343228B02432C
:102EB0001343C1F86C356E68D6E9004313F0010383
:102EC0003AD02F6907F10C0000F092FB274B984293
:102ED00007D027480121274A03F0A4FA6FF0040025
:102EE000F8BD387B04F10C0204F5907103F0CDFDC0
:102EF000387B012707FA00F000F074FB0823C4F8C0
:102F00000035F369C4F844350023C4F84835A76098
:102F1000D4F85831002BFBD00023C4F800356B687F
:102F2000596811F0040105D1D86803F096FC68686F
:102F300003F0A2FC0020D3E70822C4F80025F269C0
:102F4000C4F84425C4F848350123A360D4F82031DF
:102F5000002BFBD00023C4F82031D4F8203101230A
:102F6000E3604FF48073C4F80433D1E70000AD0B85
:102F7000A0730000437E00000123834070B5DC4352
:102F80000B4AD2E8EF1F01EA0405C2E8E65F002E13
:102F9000F7D14FF4803282400648C0F80823BFF3CF
:102FA0005F8FBFF36F8F0B4214BF0120002070BDF5
:102FB0007C1200200050015070B40E4922F07F4670
:102FC000D1E90034D01AC31844F10004C1E9003437
:102FD000A6F50013B3F5400F09D2074B1B681A0A78
:102FE0001B069C19054B42F10005C3E9004570BC66
:102FF00002F060BA700A002080120020780A0020D7
:10300000D9B101230D4A8340D2E8EFCF4CEA030C3B
:10301000C2E8E1CF0029F7D14FF48033084A83405A
:10302000C2F80433074BD3E8AF3FC340DB0742BFCE
:103030004FF40012044BC3F8002170477C120020AB
:10304000005001507812002000E100E00D4B18689C
:10305000010A0006BFF35F8F0B4BD3F80435181835
:1030600041F10001B3F5801F0AD2084BD3E90023D8
:10307000904271EB030303D210F1807041F1000123
:10308000704700BF8012002000500150780A0020D5
:103090002DE9F04F85B016461F4604469DF840A026
:1030A000FFF76AFF0190FFF7D1FFB04271EB070312
:1030B00052D23B4B301A67EB0101984271F100018B
:1030C0004DD2384B03EB0413D3E902239F4208BFD0
:1030D000964258D04FF48038334908FA04F8204615
:1030E00026F07F4BC1F8488303F0A7FC4FF003099B
:1030F000584604F15005AD00ADB205F1502504F578
:10310000A87305F580350293029A20F07F4341F8B9
:103110002230C1F84483D1F80435244AC01A033858
:1031200020F07F4090422ED9286868B1D1F804354C
:10313000A3EB0B0020F07F40B0F5000F039322D9E2
:10314000204603F07AFC039BBAF1000F07D109EB8C
:10315000030009F10109D7E7BAF1000F09D06FF0B8
:10316000150520460199FFF74BFF284605B0BDE83D
:10317000F08F01230E4AA340D2E8EF0F1843C2E8B4
:10318000E10F0029F8D107490E982301C8500F9B81
:1031900001EB04120025C2E902675360E1E700BFBA
:1031A00001008000600A002000500150FDFF7F00F8
:1031B000781200207FB500254FF0FF304FF0FF312F
:1031C000194C1A4B0226C4F80833C4F84833184B7C
:1031D000C4F80855C3E902014FF480334FF40012DC
:1031E000C4F80433134B0121C4F804631520C3F859
:1031F00080212A46FEF734FD1520FEF715FD012338
:103200000D4AA360236013600C4B0D4A00932846BF
:103210000023CDE90155FFF73BFF3046FFF7DAFA0F
:10322000284604B070BD00BF0050015003000F00DD
:10323000600A002000E100E07C120020B92F0000AD
:10324000FFFF7F002DE9F7432E4BD3F804239007AF
:103250000BD5D3F8042142B10022C3F804212A4A35
:10326000D3F80431136801331360264AD2F80433CB
:10327000D90326D5254BD3E8EF1F21F00100C3E881
:10328000E40F002CF7D1CB0702D4D2F84031C3B100
:1032900000251C4CC4F84051D4F84031FFF7D6FE4D
:1032A000EFF31182202383F31288BFF36F8F184B43
:1032B000D3E90267B042B94106D282F31188BFF365
:1032C0006F8F03B0BDE8F0834FF0FF38D3E90010F3
:1032D0004FF0FF391D60C3E902894FF48033C4F811
:1032E0004833C4F84051D4F8403182F31188BFF319
:1032F0006F8F0029E5D0009032463B46284688472C
:10330000DFE700BF0050015080120020781200203B
:10331000600A002030B5431C124C85B005D08442B1
:10332000A8BF0446012CB8BF0124FFF78FFE0E4B47
:103330000C4DD3E90013401AB0F5000F0FD222183C
:10334000AA4228BF2A46002052180849CDE90100A8
:10335000009143F10003FFF79BFE05B030BD2A4604
:10336000F1E700BFFFFF7F00700A0020B92F0000C7
:1033700008B5FFF76BFE024B1B68C01A08BD00BF03
:10338000700A00204FF47F03D3F83021D3F8343192
:10339000072A05D1023B032B02D8024AD05C7047B2
:1033A00000207047847E000008B5FFF7EBFF58B19E
:1033B000644BD3F8202A3AB90D21C3F8201A012111
:1033C000C3F81C19C3F81C290022D30003F57F039E
:1033D000D3F80013013107D0D3F800130132D3F82A
:1033E0000433202A0B60F0D1FFF7CCFF002840F017
:1033F000A080FFF7C7FF40B1534B544AC3F83025B4
:103400004FF050230122C3F858254FF47F03D3F81F
:103410003021D3F83431072A09D1023B032B06D8D7
:103420004B4AD35C1BB100224A4BC3F84C25FFF733
:10343000A9FF50B14FF05023D3F80024D10742BF69
:103440000022C3F81421C3F818214FF47F03D3F8E6
:103450003021D3F83431072A09D14FF05023D3F863
:103460000024D20744BF6FF00102C3F80024FFF725
:1034700089FF18B16522334BC3F80C274FF47F0343
:10348000D3F83021D3F83431072A16D1314BD3F891
:103490002034002B11DA4FF050230322C3F81825F3
:1034A00001229A60D3F80421002AFBD00022C3F83D
:1034B00004210122DA60C3F818254FF47F03D3F802
:1034C0003021D3F83431072A23D1023B032B02D811
:1034D000214AD35CEBB17E221A4B1B49C3F80C275F
:1034E000C3F83C297F231D4AC2F818310023C1F8D4
:1034F000043EC1F8083E01F54821C1F81031C2F878
:103500002431C2F82C3102F5FF1202F58052C2F8C4
:10351000A032134AD2F88C3043F44063C2F88C30A6
:10352000104A114B1168C3F84415D269C3F84C25F1
:1035300008BD2922034BC3F80C270322C3F83C27FC
:1035400057E700BF00400050009003504400EFBE1A
:10355000807E0000002003507C7E00000020005090
:1035600000ED00E00080FF000060005030B504680E
:10357000ACB1B4FA84F30122C3F11F03DBB29A4069
:1035800024EA0202D0E8EF5FA54204D1C0E8EC2FA4
:10359000BCF1000FF6D1EAD102480B7030BD0248F1
:1035A000FCE700BF0000AD0B0200AD0B10B50368D7
:1035B000CB40DB0710D401238B40026843EA0201B1
:1035C000D0E8EF4F944204D1C0E8EC1FBCF1000FEB
:1035D000F6D1F2D1014810BD0148FCE70000AD0B67
:1035E0000400AD0B014BC3F8040570470070015097
:1035F0000146014800F044B94C0000200328F7B50B
:1036000006462ED84FF05021364B374A33F810007B
:10361000925DC1F8080300250A44012142F21074AA
:103620004FF05027314B116033F816308E4203F1C2
:1036300050231D601B688DF8071008BF0DF10705AA
:10364000022E32D0032E40D0012E1CD0D7F81834D1
:1036500003F480333DB923B1012003F00AFA013CA1
:10366000F0D103B0F0BDD7F8182402F003022A709D
:10367000002BF6D09DF807000128F2D103F0F9F9EC
:10368000013CDDD1EDE7D7F80C3403F480333DB9CC
:10369000002BE6D0012003F0ECF9013CF3D1E0E788
:1036A000D7F80C2402F00102E1E7D7F85C3403F408
:1036B00080333DB9002BD4D0012003F0DAF9013C6E
:1036C000F3D1CEE7D7F85C24ECE7D7F85434DB032A
:1036D000C7D5002DCED1012003F0CBF9013CF4D1A8
:1036E000BFE700BFAC750000887E0000A475000035
:1036F000044B1A7922B9012218601A7102487047E6
:1037000002487047841200200000AD0B0C00AD0B86
:1037100008B50A4B1B6833B10520FEF793FA10B9C0
:103720000520FEF781FA4FF050230122C3F8182537
:10373000C3F81425C3F8802508BD00BF84120020FB
:1037400010B5032845D8DFE800F01802554F0022D5
:103750004FF480730121002003F1502318601C688E
:10376000012402F150221460284A1268002A47D02E
:103770004FF05023C3F804132BE04FF05023D3F83D
:103780001814D3F81824C90312D502F00303022B2E
:1037900005D0012B02D00020FFF730FF01234FF0AE
:1037A00050220221C2F8183508224FF48273D2E762
:1037B000D3F81424D207F1D5D3F81C2402F0030265
:1037C000013A012AE7D8114A12681AB10222C3F855
:1037D000042310BDD3F80421002AFBD00022C3F833
:1037E0000421D3F80431F4E718224FF490734FF416
:1037F0008071B0E720224FF492734FF40071AAE772
:103800001A68002AFCD018601B68E2E784120020C6
:10381000F8B54FF0502301250026D3F80443174F85
:1038200004B9F8BDB4FA84F0C0F11F00830003F5B9
:1038300080739BB203F1502305FA00F2196892B22B
:1038400024EA02040029EBD01E601B684FF05023CD
:10385000022AC3F808230DD1D3F81814D3F818148A
:1038600001F00301012905D1C3F81825C3F8042389
:103870009960D5E73B68C0B29847D1E78412002031
:103880000079024B03EB0010FFF770BE54000020DC
:10389000036803F01F025B09026004D0012B034898
:1038A00018BF002070470248704700BF00288450AE
:1038B00000258450034A4309D35C00F01F001844DC
:1038C000C0B270478C7E000070B50546FFF7F2FF6E
:1038D0000C4C083034F810300E46DA0508D5C3F326
:1038E000432304EBC302284654F833305268984708
:1038F000A3682BB131462846E268BDE870401847FE
:1039000070BD00BF8C12002008B5FFF7D3FF034B3A
:10391000083033F81000400B08BD00BF8C120020A7
:1039200008B5FFF7C7FF034B083033F81000C0F3AA
:10393000400008BD8C12002008B5FFF7BBFF034B09
:10394000083033F81000C0F3401008BD8C1200207E
:10395000034611F0010010B5CCB20BD1A207C4F39D
:1039600040000DD5074A106A58601062003818BF31
:10397000012005E004490A6A1A600A62002AEDD0B3
:1039800010BD00BF002884500025845010B5FFF7FB
:1039900091FF124A083032F81030D9051CD5C3F314
:1039A000432123F4F85322F81030002002F10E04D2
:1039B00034F8023F13F4807F03D0C3F343239942CA
:1039C0000AD001303028F3D1002342F831300448C6
:1039D000BDE81040FFF7EABD10BD00BF8C1200200B
:1039E00004130020F0B5044600200125064601F12D
:1039F000A05101F55151104A89008A420BD10F4B59
:103A0000D3F87C2132B10022C3F87C21D3F87C3179
:103A100040F00040F0BD02F13043A3F551439B0854
:103A200005FA03F31C4204D0176817B11660176833
:103A300018430432E1E700BF00D1005000D000502D
:103A4000F7B506460846FFF735FF1A4F00F108059F
:103A500037F815300C46DB072AD5304603F076F8E8
:103A60002046FFF769FF58B12046FFF74DFF0022BF
:103A7000316800B201EB8003C3F81025C3F81025AC
:103A80002046FFF783FF002301A827F81530019493
:103A9000FFF7FEFE019B00EB8300D0F80022064BEF
:103AA000134043F00203C0F80032044803B0F0BDF5
:103AB0000348FBE78C120020F0F0FCFF0000AD0B88
:103AC0000400AD0B2DE9F0431646804685B008464C
:103AD000FFF7F0FE0C463168054609B32046FFF7B4
:103AE0001FFF18B12046FFF727FF10BB00230DF181
:103AF0000F02CDE900338DF80E308DF80F302046DF
:103B00000B460DF10E0102F0C9FF4A4A05F108010A
:103B100032F8113023F0020343F0010322F8113090
:103B200073687BB320461F785968FFF7F9FE10B120
:103B3000E9B1414829E03F4A05F1080032F8103068
:103B400023F02003DB04DB0C22F8103079B1032FC3
:103B5000EFD87168D1F804E0D8F800109EF800C0E2
:103B600001EB8C01A7B9C1F81075C1F81075314A85
:103B700005F1080132F8113023F01C0343EA8703F2
:103B800022F81130B3685BBB2C4805B0BDE8F08368
:103B9000D1F810E543EA4C332EF0030EC1F810E5DE
:103BA000D8F8001043F0200301EB8C0EDEF810155E
:103BB00022F8103021F44F3121F44071CEF8101565
:103BC0002102DEF8108501F47C5141EA074141EA07
:103BD0000801CEF8101502EB4C01A1F87C40C6E7B5
:103BE0002046D3E90067FFF7D1FE002ECCD0114C60
:103BF000D4E90023964203D19F4201D1002209E07B
:103C00000F480DF10F01FFF7B1FC0C4B9842BCD1EE
:103C10009DF80F2004EBC20308355F6034F81530BF
:103C200044F8326043EA422343F4807324F81530A9
:103C3000AAE700BF8C1200200400AD0B0000AD0B02
:103C4000041300202DE9F0430C46804685B0204641
:103C500011461D46FFF72EFE064629B32046FFF704
:103C60005FFE18B92046FFF767FE18BB334F06F119
:103C7000080937F8193013F01C0F02D04B78012BCC
:103C800018D001238DF80F3000234A1CCDE9001312
:103C900020468B1C0DF10F0102F000FF37F81930A0
:103CA00043F0030327F81930002D44D02046FFF7D6
:103CB00037FE18B9224805B0BDE8F083002295F818
:103CC00000C0D8F800301D4F03EB8C03C3F810255B
:103CD000C3F8102506F1080237F812104FEA8C0ECF
:103CE00021F02001C904C90C27F812106E7816B310
:103CF000D8F80000AD787044D0F81035360423F4BD
:103D0000991323F4F853C0F81035230203F47C53BD
:103D100006F440362D05D0F810E5334305F4801540
:103D20002B4341EA4C3143EA0E0341F02001C0F835
:103D3000103527F812100348BDE700BF8C12002091
:103D40000400AD0B0000AD0B014BC3E9021270473C
:103D50008C12002010B508461446FFF7EDFD50B157
:103D60000846FFF7A7FD054B083033F8103004482C
:103D70005B0B237010BD0348FCE700BF8C120020D2
:103D80000000AD0B0400AD0B70B50E4C064694F868
:103D90008C50A5B96022294604F1100003F000F907
:103DA0003068C0F87C51D0F87C3140F30730FDF723
:103DB0003BFF0123044884F88C30A36770BD03489F
:103DC000FCE700BF8C1200200000AD0B0C00AD0B17
:103DD000034B93F88C00003818BF0120704700BFD8
:103DE0008C1200200079024B03EB8000FFF7DEBB52
:103DF000640000200079024B03EB8000FFF7B6BBA4
:103E000064000020F7B5054608461646FFF794FD06
:103E10000C462968F0B12046FFF782FD0746C8B975
:103E20002046FFF771FD04B2A40004F580728F50A4
:103E30008A5829682144D1F8102542F00102C1F8BE
:103E400010252EB10122296802FA00F3C1F80433CB
:103E500003B0F0BDD1F804332046002BA4BF4FF0CF
:103E60000043C1F80433FFF725FD0F4B083033F84A
:103E70001030C3F38203042B11D0052B11D001A8FD
:103E80000194FFF705FD019A0369D34003F0010394
:103E9000991C204603B0BDE8F04002F048BE032163
:103EA000F7E70221F5E700BF8C1200202DE9F04F63
:103EB000634B0821D3F8040387B0C0B240F0004040
:103EC000FFF790FD051E2BDA0023032104A8CDE99E
:103ED0000433FFF73DFD4FF000094FF0010BDFF811
:103EE00064A10DF110081AF8013B5749DA088A5C01
:103EF00003F0070322FA03F3DA071CD408F10408DD
:103F0000B9F1000F14D000214FF00040FFF76AFD17
:103F1000032104A8FFF71CFD0028DCD125F0004593
:103F20000124474E494F002D75D107B0BDE8F08FF1
:103F30004FF00109D7E7464B4B440093D8F80010E7
:103F40000029DBD091FAA1F1B1FA81F1009B1C7834
:103F500041EA44142046FFF7ADFC3C4B083033F8EF
:103F60001070C80818F8002001F007010BFA01F1E1
:103F700022EA0102BB0808F8002003A80193039479
:103F8000FFF786FC039A019B803250F82220C7F38A
:103F900082065B073746C2F3014221D520463946E7
:103FA000D6B2FFF791FC03A80394FFF771FC039BC3
:103FB000803350F82330C3F301439E4207D10021E0
:103FC000204602F0B4FD3146204602F0B0FD03A8C1
:103FD0000394FFF75DFC039B0BFA03F30362ADE769
:103FE000022A0CD10321204602F0A1FD06F00503B0
:103FF000012BECD139462046FFF766FCE7E70221AA
:104000002046019202F093FD032EF3D0019A032A79
:10401000DDD1022EEDE795FAA5F3B3FA83F304FAA6
:1040200003F225EA020503F5A27256F8221007EB07
:104030004303B3F87C00C1F30141FFF745FC72E78D
:1040400000D000509C7E0000E87400008C1200201C
:104050009C7E000010B50446FCF7BEFF034801211A
:10406000034A02F0DFF9204602F0A8FD8873000041
:104070009E7E00002DE9F84304460D4600AFEFF3A5
:104080001188202383F31288BFF36F8F0428294AF5
:1040900098BF294BE9468AB09668117C98BF53F8BF
:1040A00020306A4688BF254BC2E9073140F2013310
:1040B00023489384234BC2E9050442F8103F0023B0
:1040C0004FF431512048FDF749F8CD4645B1EB6931
:1040D000C3F3080323B101211C4A1B4802F0A2F9D3
:1040E0002EB1304602F020FE08B1037803B918481B
:1040F000E9468AB06A46174BD061C2E9053640F2FC
:1041000001331384144B42F8103F00234FF4115134
:104110000D48FDF723F82946CD462046FFF79AFFC4
:1041200088F31188BFF36F8F3046FDF725FDBD463C
:10413000BDE8F8831C130020EC740000AD7E000085
:10414000C37E00000500000188730000EB7E0000C4
:10415000BB7E00000C7F00000400000138B50A4B54
:1041600053F82040013053F82050A54200D838BD04
:10417000606830B1037FDB0701D402F027FD08340B
:10418000F3E723689847FAE700750000012270B54D
:104190002A4B032086B01A70FFF7E0FFFEF732F9D2
:1041A000FDF7B6F80420FFF7D9FF254C254D26462C
:1041B000AE4204F1300410D300F04AFE204C224EEF
:1041C000AC4226D300F058FEFBF7FEFF1F4A137BDC
:1041D00023F00103137306B070BD54F80C3C059333
:1041E00054F8103C049354F8143C039354F8183CCE
:1041F000029354F81C3C019354F8203C009354E97A
:104200000A2354E90C0100F0F5FB54F8303C5E65DC
:10421000CDE7D4E90A23B3F1FF3F08BFB2F1FF3F76
:1042200005D052EA0301206803D100F01BFF3034AF
:10423000C6E73146183001F0ABF8F8E74815002022
:10424000C4720000C47200001B6E0000000B00204E
:1042500008B50348034A0021121A02F0CEFC08BD3B
:10426000A00100204C1500200023012270B586B06B
:10427000CDE904230F220193CDE9023214234FF438
:10428000A0720E4D0E4E03FB00550E4906EBC016F4
:10429000044602FB00110C4B3046009500F0AAFBCF
:1042A000737B2C7423F004037373084B013403EB0A
:1042B000C423EE606B6006B070BD00BF1C1300200D
:1042C000800A002050210020C16C000050190020FD
:1042D000BFB50020FFF742FF2B4B03F5006282F3CE
:1042E000088883F30A880024E023284D284F85F8A6
:1042F0002230EC772C766C76AC7685F820406B6AB1
:1043000043F4E0236B6285F82340FDF7B3FBFDF730
:104310001BFD4FF0FF33AB62EB62FDF72DFFFDF7A6
:1043200037FDFCF7B9FD1B4800F0F2FB02F03AFC48
:10433000FEF74AF80120FFF711FF0220164DFFF7A4
:104340000DFF00F0E9FD154B15495D61154B4FF46C
:104350008052059301232846CDE90343CDE901446A
:104360003B46009400F046FB06466A7B284622F056
:1043700004026A7302F014FD2046FFF775FF3A4607
:1043800031462846FDF7C0FC5019002000ED00E042
:104390008D410000800B0020000B00201C1300202A
:1043A000902200206E7F0000002038B5054C064D9D
:1043B000AC4200D338BD204602F023FC0028F9DBD4
:1043C0001C34F5E7180100201801002073B50C46D5
:1043D000EFF31181202585F31288BFF36F8FC56835
:1043E0005DB125602B68C360836901338361002060
:1043F00081F31188BFF36F8F11E052EA030603D1F6
:104400006FF00B002560F3E7CDE90023024608308A
:1044100000F064FC18B9034B9B681B69236002B071
:1044200070BD00BF1C1300202DE9F34104460E4669
:1044300000F10808EFF31187202181F31288BFF300
:104440006F8F006AE168884233D22568AC4219D088
:10445000C5B1284602F03FFC05F1180002F035FD19
:10446000A26800243146286902F08DFD2846AC6719
:1044700002F096FC4046394600F0C4FC204602B0EB
:10448000BDE8F081A2683146E06902F07CFD0020C1
:10449000E369A26813446269E361934204BF23693C
:1044A000E361236A0133236287F31188BFF36F8FBF
:1044B000E5E752EA03010AD00649404689680E61E1
:1044C000CDE900233946224600F008FCD7E76FF01B
:1044D0002200E9E71C130020F7B50446084604F162
:1044E0000807EFF31186202181F31288BFF36F8F45
:1044F000216A002939D0A268A16902F044FDA369AC
:10450000A268256813446269A361934204BF2369CA
:10451000A361236AAC4203F1FF33236233D0284600
:10452000002D31D002F0D7FB05F1180002F0CDFCD0
:10453000A2682969E06902F026FDE369A2682846BD
:1045400013446269E361934204BF2369E361236A10
:10455000013323620024AC6702F022FC3846314666
:1045600000F050FC204603B0F0BD52EA030110D029
:10457000094989680861CDE9002331462246384659
:1045800000F0ACFBEFE7002086F31188BFF36F8FDC
:10459000E9E76FF02200F7E71C130020F8B50C469E
:1045A0008368054693F90E1000AFA14223D05A7BD1
:1045B0006E4612F01F0F8CB014BF6E2079206A4631
:1045C000DFF838C0C2E90804C2F814C0DFF830C010
:1045D0009162C2E906C3072342F8103F4FF46451C9
:1045E00008480023FCF7BAFD2146B546A86800F04C
:1045F00097FBBD46F8BD0020FBE700BF767F0000BB
:10460000D8800000887300002DE9F04F85B0044683
:104610009246994602AFEFF3118B202383F3128861
:10462000BFF36F8FC368774D83B18268A9688A42F0
:1046300030D05AEA09032FD18BF31188BFF36F8F63
:104640006FF00F000C37BD46BDE8F08FAA6892F9F5
:104650000E10AA680133A260A8686D468CB0216173
:10466000E36002AAC2E908430723674E91625661DC
:10467000664EC2E9066042F8103F00234FF46451D1
:104680006348FCF76BFDAD468BF31188BFF36F8F6A
:104690000020D7E70169DCE791F90E6092F90E304E
:1046A000C7F804D09E42A8BF1E466FF07E0388B0B4
:1046B0009E42B8BF1E4602AA564BDFF85081536196
:1046C0000423C2E9068042F8103F00234FF404514E
:1046D0004F48FCF743FDA368D7F804D093F90E3098
:1046E000B34240F3858031462046FFF757FF064628
:1046F000CDE900A959462246474800F0EFFAEB46BB
:104700008AB082460DF10809444B4A46C9E905388A
:104710000523C9E9074042F8103F00234FF4245114
:104720003B487A60FCF71AFDDD46BAF1000F14BF72
:1047300079236E23A9688AB0C9F824300623384843
:10474000C9E90714C9E90508C9F8103000234FF476
:1047500044517A682E48FCF701FDDD46BAF1000F9E
:1047600096D08AB0AB6802AAC2E9073405232D4966
:10477000C2E9051842F8103F00234FF424512448A1
:10478000FCF7ECFCDD46EFF31189202383F312885C
:10479000BFF36F8FA3686BB3236825699C420AD06F
:1047A0004BB193F90E309D42A8BF1D466FF07E03BA
:1047B0009D42B8BF1D46EA4688B002AA1A4BD46192
:1047C000C2E90538042342F8103F4FF40451104861
:1047D0000023FCF7C3FC2946D5462046FFF7DEFE42
:1047E00040B149460C4800F00DFB6FF00A0029E784
:1047F00000267DE7002EF4D189F31188BFF36F8F77
:10480000F3E700BF1C130020AB7F0000EA8000002C
:1048100088730000DA7F000049150020FC7F00004B
:10482000208000003E800000598000002DE9F84300
:104830008368054600AF002B6ED03A4A92689342D7
:104840006DD16C468AB06A46C36813620523364947
:10485000364E5161C2E9066042F8103F00234FF422
:1048600024513348FCF77AFCEB68A546012B05D9A7
:10487000013BEB600020BD46BDE8F883EFF31188F3
:10488000202383F31288BFF36F8F28462969FFF72F
:1048900085FE2C68A54223D10024264BAC60E94656
:1048A0008AB06A46536206232349C2E90754C2E923
:1048B000051642F8103F00234FF444511C48FCF702
:1048C0004DFCCD4614B394F90E3020462B610023E5
:1048D000A36702F065FA4146184800F093FAC9E769
:1048E000002CD9D0D4E9003213605A600023627BD7
:1048F000C4E9003322F00202A360627304F11800DD
:1049000002F0E3FAAC6094F90E30C8E7EC6088F38B
:104910001188BFF36F8FADE76FF01500ABE74FF075
:10492000FF30A8E71C1300207D800000C28000003B
:104930008873000018FCFFFF9980000049150020D3
:1049400070B5EFF31186202383F31288BFF36F8FC6
:104950000468A0421AD0CCB1D4E90032002513601B
:104960005A60637BC4E9005523F002036373A560BA
:1049700004F1180002F0A9FA2046A56702F010FA27
:104980003146BDE87040074800F03CBAD0E9023239
:104990009A4218BF0133836086F31188BFF36F8F8B
:1049A00070BD00BF4915002013B5EFF3118120241D
:1049B00084F31288BFF36F8F846844B1013C846034
:1049C00081F31188BFF36F8F002002B010BD52EA4F
:1049D000030406D181F31188BFF36F8F6FF00F00CE
:1049E000F3E7CDE900230246014800F077F9ECE750
:1049F000491500202DE9F04F85B0994604AF00F12C
:104A00005803C0E91633BB6B4FF00008037304234F
:104A1000073243737B6B22F00705EB468EB00446EA
:104A20000E46C0E90688C0F80880837380F80F80BE
:104A300001EB050A04AA1C4BC2E9080553611B4B94
:104A4000C2E90A15C2E906310923C2F830A042F8CA
:104A5000103F4FF4924143461548FCF77FFB514607
:104A6000DD462046FCF7C0FD3B6B073020F0070019
:104A7000A066C4E918650293FB6AAAEB000A0193D9
:104A8000BB6A5246009331464B462046FDF720F95B
:104A9000084BC4F854809B6803B1DB6E5046043762
:104AA000E366BD46BDE8F08FFE8000004F81000048
:104AB000887300001C130020F0B5002587B0059511
:104AC000109DDDE9127604950F9D044603950E9D19
:104AD00002950D9D01950C9D0095FFF78BFFB6F19A
:104AE000FF3F08BFB7F1FF3F05D056EA070305D1E6
:104AF000204600F0B7FA204607B0F0BD3A463346EC
:104B000004F11800014900F043FCF4E71B6E0000BB
:104B100040F2011383810023C0E91833C366014BBF
:104B2000986070471C1300206FF00A01084A9368D0
:104B30009967084958674B6843F080534B600023DE
:104B400083F31188BFF36F8F9368986F704700BF2E
:104B50001C13002000ED00E070B590F90D20437BA0
:104B6000002A36DBD90634D11B4C63F07F03224682
:104B7000437352F8183FE169934207D1C0E900211D
:104B80000860E06111E09942F8D01B68002BF5D075
:104B900090F90E5093F90E60B542F4D0AE42F2DDBA
:104BA0005968C0E9003108605860A569954200D095
:104BB00005B9E568A3685A7BD20604D1DA897F2A51
:104BC00001D9AA6932B1AB4202D0284600F03EFBBF
:104BD000656170BD6361FCE71C13002038B590F976
:104BE0000D200146002A437B04DA03F07F03437360
:104BF00002F09CF80D4D2A4652F8184FAB689442CB
:104C000000D004B9EC688B4207D05A7BD20604D19D
:104C1000DA897F2A01D9A2692AB1A34202D02046AB
:104C200000F014FB23466B6138BD00BF1C1300204D
:104C3000B3F1FF3F08BFB2F1FF3F03D00249183084
:104C400000F0A6BB704700BF1B6E000070B590F966
:104C50000D200146002A437B04DA03F07F034373EF
:104C600002F064F81C4C4B7B224663F07F034B73CD
:104C700052F8183FE069934207D1C1E90020016072
:104C8000E16111E09842F8D01B68002BF5D091F952
:104C90000E5093F90E60B542F4D0AE42F2DD586882
:104CA000C1E9003001605960A569A368954200D050
:104CB00005B9E5688B4207D05A7BD20604D1DA8960
:104CC0007F2A01D9AA692AB1AB4202D0284600F056
:104CD000BDFA2B46636170BD1C130020F8B5DDE9F9
:104CE00006670D4B0C46986811460C4A1060EFF3AE
:104CF0001182202282F31288BFF36F8F9D682846AD
:104D000002F026F8284632463B46FFF791FF204640
:104D1000BDE8F840FFF708BF1C1300203C1300203B
:104D2000F8B50446EFF31187202383F31288BFF30D
:104D30006F8F437B49B203F01F02002A0CBF01268C
:104D4000002639D103F07F032D4D437301F0EEFFB0
:104D50002A46437B817363F07F03437352F8183F05
:104D6000934227D1E869C4E900200460EC610FE0B8
:104D70009842F8D01B68002BF5D093F90EC061451E
:104D8000F6D08C45F4DD5968C4E900310C605C60F4
:104D9000AC69944200D004B9EC68AB689C4202D084
:104DA000204600F053FA6C6187F31188BFF36F8FD0
:104DB0003046F8BDE869DEE79B071ED5856801F03F
:104DC000B5FF81732B689D4209D16B68C4E900531C
:104DD0001C606C60E8E76A689342F6D01B68002BA1
:104DE000F3D093F90E209142F5D08A42F3DD5A6850
:104DF000C4E9003214605C60D6E78173D4E700BF79
:104E00001C13002049B9EFF3058030B9054B5A69EE
:104E10009B689A4201D0FFF787BE81F31188BFF3E8
:104E20006F8F70471C130020034648B9EFF30582CB
:104E300032B9064A51699268914201D0FFF774BEB7
:104E400083F31188BFF36F8F704700BF1C130020DE
:104E5000EFF31181202383F31288BFF36F8F054B8B
:104E60009A68D37B013BD37381F31188BFF36F8FB3
:104E7000704700BF1C130020F8B500AFEFF3118698
:104E8000202383F31288BFF36F8F1F4DAB68DA7B4B
:104E90000132DA732A4652F8184F944200D004B90E
:104EA000EC685A7BD20604D1DA897F2A01D9A2693B
:104EB0002AB1A34202D0204600F0C8F923466B6114
:104EC00086F31188BFF36F8FAB686C468AB06A4671
:104ED000D97B0E48116250610D48C2E906030523D3
:104EE00042F8103F00234FF424510A48FCF736F9EA
:104EF000A546EFF31180202383F31288BFF36F8F51
:104F0000FFF792FFBD46F8BD1C1300206281000030
:104F1000AA81000088730000024B03F11802C3E964
:104F2000062270471C13002070B5EFF31186202372
:104F300083F31288BFF36F8F1B4CA168E0690B6885
:104F4000814214BF1A46002249680B605960A36869
:104F5000E1692AB9154AC3E900210B60E3610CE05D
:104F600093F90E0092F90E50A84218D0854216DD32
:104F70005168C3E900210B605360A5690B4B9D424A
:104F800000D005B9E568A3689D4202D0284600F02C
:104F90005DF965613046BDE87040FFF7C5BD8A42E6
:104FA000D8D01268D5E700BF1C13002034130020AE
:104FB0002DE9F041254DE84600AF8AB004460E4683
:104FC0006A46AB682249106251612249C2E9061360
:104FD000052342F8103F00234FF424511E48FCF7EC
:104FE000BDF856EA0403C54605D1FFF79DFF002032
:104FF000BD46BDE8F081EFF31188202383F31288CA
:10500000BFF36F8F154BA8681860FFF7E7FDA8681E
:10501000224633461249183000F0BAF9AA6804460D
:10502000537B404643F004035373FFF77DFDAB68A9
:10503000D3E90A23B3F1004F08BF002AD7D101F00A
:105040006CFF201A20EAE070D2E700BF1C1300209A
:10505000818100009D810000887300003C130020C6
:105060001B6E000038B50446EFF31185202383F34F
:105070001288BFF36F8F437B5B070FD5183001F0A9
:1050800024FF637B204623F004036373FFF764FD72
:105090002946BDE838400448FFF7B4BE85F31188BF
:1050A000BFF36F8F38BD00BF49150020014B9868D2
:1050B000704700BF1C1300202DE9F8430446077B0E
:1050C000EFF31185202383F31288BFF36F8F437BA7
:1050D000190705D585F31188BFF36F8FBDE8F883F5
:1050E000D90943F008025AD14273A36813B120468C
:1050F00001F024FE04F1180001F0E7FEA66D04F1B2
:105100005808B04511D04FF0000976B1304601F093
:1051100015FE06F1180001F0D8FE3046C6F878906A
:10512000FFF71AFDA66DB045EFD1DFF8B880D8F8CB
:1051300008309C423BD1EFF30589B9F1000918BF53
:105140004FF00109D8F81860274A964200D00EB9EE
:10515000D8F80C60B34202D0304600F077F8C8F8B7
:105160001460B9F1000F02D02048FFF7D1FCD8F845
:1051700008309C4231D1EFF3058373BB227BD20709
:1051800018D42846FFF7D0FCFB07A7D5002383F3EC
:105190001188BFF36F8F0423184602DF9EE703F0E8
:1051A0007F0343F00803437301F0C0FD9DE74FF018
:1051B0000009C7E785F31188BFF36F8F83F3118868
:1051C000BFF36F8F0423184602DFEFF31180202313
:1051D00083F31288BFF36F8FD4E785F31188BFF391
:1051E0006F8FD1E71C13002034130020800B0020A8
:1051F0000122044BC01A044BC0105843034B1A54ED
:10520000704700BF000C0020ABAAAAAA49150020D5
:10521000C3897F2B12D80A4B1B6863B1094B90F9E5
:105220000E201B689A4209DB437BDB0606D1064B46
:10523000C31A18BF012303F0010070470023FAE7E7
:105240006800002040130020800A002070B50E4B3B
:105250000E4C1E7C054606EB460304EBC3042046B9
:1052600001F033FE00220A4B28469A55FFF7D0FF83
:1052700048B1084B2046BDE870401A680649013A1B
:10528000D31700F085B870BD1C130020000C00205F
:105290004915002068000020F151000038B5EFF3F7
:1052A0001185202383F31288BFF36F8F104B114AAF
:1052B0009C681068A04206D1FFF7C8FF85F31188EB
:1052C000BFF36F8F38BD00211B7C11600A4AD35C8D
:1052D000002BF3D02046FFF79BFF0028EED0637B26
:1052E000DB0602D12046FFF7B1FC2046E4E700BF11
:1052F0001C1300203C13002049150020074808B566
:10530000074A0849121A01F07AFCBDE8084006482D
:10531000064A0749121A01F072BC00BF00000020C3
:10532000A0010020BC81000000000020000000203F
:10533000BC810000024B1868984208BF00207047EB
:105340006C000020034B1B680BB9FEF711B800205E
:10535000704700BF4413002030B570B10B4B5B6841
:1053600098420AD0036843B1D3E90421D0E9044547
:10537000121941EB0501C3E90421D0E900321360A1
:105380005A600023C0E9003330BD00BF6C0000202C
:10539000B3F1FF3F08BFB2F1FF3F2DE9F84F0446DC
:1053A000994615461F467BD08160EFF31188202374
:1053B00083F31288BFF36F8F013279F1FF33DFF887
:1053C000E8A020DBFFF7BEFFDAE90027013549F14D
:1053D00000092D1849EBE07306464FF00109C4E9B6
:1053E0000453AD1843EB0707FFF7A4FF0346DFF8AC
:1053F000BCE0DEF804A0EBB9C4E900EACAF800405A
:10540000CEF8044028E06FF00103DAE900125B1ADD
:105410004FF0FF3161EB02025B1B62EB0902012BD3
:1054200072F10001BCBF012300224FF00009C0E966
:105430000432D9E7D3E9041CD4E904208A4270EB92
:105440000C0B24DA891A5A686CEB0000C3E90410CB
:10545000C4E9003214605C60FFF76CFF84420ED137
:10546000134B1B685BB9B9F1000F02D1FFF76AFF5C
:105470000646304601F012FD0021FDF74BFF88F390
:105480001188BFF36F8F28463946BDE8F88F521A4E
:1054900060EB0C009A45C4E90420ADD01B68AAE774
:1054A00000252F46EFE700BF180C00206C000020FD
:1054B000441300202DE9F047EFF31185202383F3F7
:1054C0001288BFF36F8FDFF8A0900026C9F80000A4
:1054D0000027FFF72FFFDFF89480D9F80030D8E9D4
:1054E00000ECD91750B1D0E90442A34271EB020A93
:1054F0001BDAE41A62EB0102C0E90442002413EB58
:105500000E034CEB01012046C8E90031C9F8004008
:1055100001F0C4FC2146FDF7FDFE85F31188BFF3C1
:105520006F8FBDE8F047FFF7B9BE14EB0E024CEBEE
:10553000E473C0E90467C8E90023FFF70DFF85F3B2
:105540001188BFF36F8F83689847EFF3118520238D
:1055500083F31288BFF36F8FD9F800301B1BC9F893
:105560000030FFF7E7FEB8E744130020180C0020D6
:1055700010B5EFF31184202383F31288BFF36F8FEC
:10558000FFF7E0FE0346054AD2E90001181841EB97
:10559000E37184F31188BFF36F8F10BD180C0020E6
:1055A000F8B50446EFF31187202383F31288BFF385
:1055B0006F8F026822B187F31188BFF36F8FF8BD38
:1055C000D0E90A36581C46F10001022871F10001A9
:1055D00027D3012B76F10001BCBF012316465D1EC7
:1055E00046F1FF3601F09DFC013041F10001401908
:1055F00046EB0101012871F1000139DB01F091FC5A
:10560000013041F100016FF00102401946EB010346
:105610004FF0FF31121A61EB030320461749FFF7E1
:10562000B7FE236B01332363236A6BB187F31188C1
:10563000BFF36F8F2046236A9847EFF3118720232B
:1056400083F31288BFF36F8F54F8185FA542B2D06E
:10565000002DB0D0284601F0B2FB0023AB6787F3E2
:105660001188BFF36F8F2846BDE8F84001F098BB62
:105670006FF001024FF0FF33CFE700BFA1550000EC
:105680002DE9F04105461C4690461F46EFF3118672
:10569000202383F31288BFF36F8FB4F1FF3F08BF5D
:1056A000B2F1FF3F05D186F31188BFF36F8FBDE8DC
:1056B000F081531C74F1FF3309DB012A74F10003FC
:1056C000BCBF0122002412F1FF3844F1FF37284605
:1056D00001F0FBFBDDE906010023C5E90A012B63AC
:1056E00042463B4628460249FFF752FEDBE700BF31
:1056F000A155000038B5064C064DAC4201D3002040
:1057000038BD2046D4E9011201F035FC1434F4E729
:10571000180100201801002010B50A4C23681BB1A5
:1057200001232360002010BD00F0F4F80028F7D01A
:105730000138072803D8044B53F8200010BD034854
:1057400010BD00BF4813002018750000FE8FFFFF3A
:10575000BFF34F8F0549064BCA6802F4E06213435A
:10576000CB60BFF34F8F00BFFDE700BF00ED00E04F
:105770000400FA0530B44FF0FE3200250B4B0C4C00
:105780000C494968C3F80024C3F80424C3F808246A
:10579000C3F80C24C3F81024C3F81424C3F8182445
:1057A000C3F81C24C4F8005530BC0847005084508E
:1057B0000040845074000020024BD0E90012C3E97D
:1057C000001270477400002010B5044650B16368A1
:1057D00013F0685F05D0064A934202D0002362604E
:1057E000236010BD034B04485B689847EFE700BF98
:1057F0002C5F5CA97400002038750000C8B14368B4
:105800000D4A934213D013F0685F0ED0012350E885
:10581000002F194640E8001C9CF0000FF7D1012A28
:10582000F5D0BFF35F8F00207047044870470448ED
:1058300070476FF4E04070472C5F5CA9E98FFFFF71
:10584000EA8FFFFF034680B1426809498A420AD0C5
:1058500012F0685F05D0BFF35F8F002210461A6018
:10586000704704487047044870476FF4E040704741
:105870002C5F5CA9E98FFFFFEA8FFFFF10B504469C
:1058800020B10023034A2360626010BD0248FFF785
:1058900071FFF6E73A00003A6075000070B5194CE8
:1058A000D0F804C00668C4F804C0D0F808C0C068C6
:1058B000C4F808C0E06026600868134B134D1860F8
:1058C0004868D5F818215860886812F0685F9860B9
:1058D000C8680969D860196112D000230C4A05F51F
:1058E0008A70C5F81431C5F8B831C5F81821C5F863
:1058F000BC21B047236805F5DC70BDE8704018474F
:1059000070BD00BF900000207C00002060130020CC
:105910002C5F5CA908B500F011F830B900F010F860
:1059200038B9054AC2F80C0A08BD00F037F8032060
:1059300008BD042008BD00BF0050845000207047FF
:1059400010B5114800F048F800B110BD0F4800F044
:1059500043F80028F9D10E4C204600F03DF800280D
:10596000F3D10C4B0C481C6000F036F801460028BF
:10597000EBD100F02DF8044608B1204610BD00F030
:105980003FF82046FAE700BFD0000020CC000020FE
:10599000C8000020C0000020C400002008B508484E
:1059A00000F024F8074800F021F8074800F01EF83E
:1059B000064800F01BF8BDE8084000F00BB800BF37
:1059C000D0000020CC000020C8000020C40000202F
:1059D00000207047704700BF08B5034B02681B6882
:1059E00010689847002008BD9000002008B5034BC0
:1059F00002685B6810689847002008BD900000208E
:105A000070B5094C094D2069AB68984718B1084B2F
:105A100008485B6898470021074AEB6811602069D5
:105A2000BDE87040184700BF7C00002090000020B7
:105A300074000020847500005C13002070478368A8
:105A400000EBC101B3F5004F2CBF51F8220031F833
:105A50001200704700EBC1018068B0F5004F2CBF09
:105A600041F8223021F812307047012208B5FFF7C3
:105A7000E6FFD04008BD836800EBC101B3F5004FDD
:105A800008D34B681AB143F001034B60704723F011
:105A90000103FAE74B881AB143F001034B807047CA
:105AA00023F00103FAE753000122FFF7D3BFB0F55B
:105AB000004F34BF04230823481C0833A0EBD30055
:105AC000B0FA80F0C0F11F0070472DE9F0410D469B
:105AD00086680446FFF7C9FFB6F5004F014601D3BB
