:1080000028F00020719B000039FD00005D9B0000FE
:108010005D9B00005D9B00005D9B00005D9B000080
:10802000000000000000000000000000D59C0000DF
:108030005D9B0000000000006D9C00005D9B000047
:10804000699E0000699E0000699E0000699E000014
:10805000699E0000699E0000699E0000699E000004
:10806000699E0000699E0000699E0000699E0000F4
:10807000699E0000699E0000699E0000699E0000E4
:10808000699E0000699E0000699E0000699E0000D4
:10809000699E0000699E0000699E0000699E0000C4
:1080A000699E0000699E0000699E0000699E0000B4
:1080B000699E0000699E0000699E0000699E0000A4
:1080C000699E0000699E0000699E0000699E000094
:1080D000699E0000699E0000699E0000699E000084
:1080E000699E0000699E0000699E0000699E000074
:1080F000699E0000699E0000699E0000699E000064
:10810000699E0000699E0000699E0000699E000053
:10811000699E0000699E0000699E0000699E000043
:10812000699E0000699E0000699E0000699E000033
:10813000699E0000699E0000699E0000699E000023
:04814000699E000034
:1081440053B94AB9002908BF00281CBF4FF0FF31BA
:108154004FF0FF3000F00CB8ADF1080C6DE904CE1F
:1081640000F010F8DDF804E0DDE9022304B0704704
:10817400704700BF034613F8012B002AFBD1181ADD
:10818400013870472DE9F04786468C460846089E1C
:10819400154674461946002B40F0C1808542B2FA58
:1081A40082F245D94AB1C2F1200300FA02FC95409B
:1081B40094402EFA03F343EA0C0C4FEA154EA8B28E
:1081C400230CBCFBFEF80EFB18CC08FB00F943EAB9
:1081D4000C43994528D9EB1808F1FF3704D2994587
:1081E40002D9A8F102072B44A3EB0903A4B2B3FB01
:1081F400FEFC0EFB1C330CFB00F044EA0344A042DB
:1082040014D92C190CF1FF3304D2A04202D9ACF1D9
:1082140002032C44241A43EA07401EB1D44000232D
:1082240034607360BDE8F0874746DDE76346F1E7F5
:1082340092BB431B01214FEA154EAFB2200CB3FB96
:10824400FEFC0EFB1C330CFB07F840EA0343984585
:1082540061D9EB180CF1FF3004D2984502D9ACF186
:1082640002002B44A3EB0803A4B2B3FBFEFC0EFBF9
:108274001C330CFB07F744EA0344A7424DD92C19DD
:108284000CF1FF3304D2A74202D9ACF102032C440F
:10829400E41B43EA0040C0E7C2F120039540944048
:1082A40020FA03F12EFA03F34FEA154E9040AFB2D1
:1082B4000343B1FBFEFC0EFB1C10190C0CFB07F86E
:1082C40041EA0041884522D969180CF1FF3004D2F3
:1082D400884502D9ACF102002944A1EB08019BB204
:1082E400B1FBFEFC0EFB1C110CFB07F743EA014338
:1082F4009F420ED9EB180CF1FF3104D29F4202D9F0
:10830400ACF102012B44DB1B41EA004193E76046D8
:10831400E3E76146F7E76046A4E76346B8E78342CC
:1083240006D916B9002108467CE7C6E900E0F9E75A
:10833400B3FA83F78FB9834201D3724508D8BEEBF1
:10834400020460EB030301209C461EB9002169E787
:108354003846FAE7C6E9004CF8E7C7F1200CBB4001
:108364000EFA07F522FA0CF42EFA0CF1BA401C436B
:1083740020FA0CF3B8404FEA144901431FFA84FE73
:10838400B3FBF9F809FB18300B0C08FB0EFA43EAAF
:1083940000439A4540D9E31808F1FF3004D29A45C6
:1083A40002D9A8F102002344A3EB0A0389B2B3FB68
:1083B400F9F809FB183308FB0EFE41EA03418E4528
:1083C4002CD9611808F1FF3304D28E4502D9A8F1E3
:1083D4000203214443EA0040A1EB0E01A0FB0298F2
:1083E4004145CE46434602D306D14D4504D2013819
:1083F400B9EB020E68EB0403002EA7D0B5EB0E0216
:1084040061EB030101FA0CFC22FA07F3F9404CEA90
:108414000303C6E9003199E74046C5E74346D9E777
:108424002DE9F04784B002AF0B230321424A4348AD
:1084340007F066FC424C204608F09DFA034690B9CA
:108444006D4688B002AA3F49C2E90514032142F8E7
:10845400101F4FF4C251394800F0D8FFAD46083719
:10846400BD46BDE8F087384D3848286008F083FAE7
:1084740028B90121364A314807F039FCEFE728686A
:10848400026981681368DFF8B48023F40063136021
:108494000B684FF4C0220B2198470026012128685D
:1084A40006F0B7FDDFF8AC90D4F808A019F8011B6A
:1084B4002046DAF81C3098470136012006F0B8FD52
:1084C400082EF3D103213346234A404607F018FC13
:1084D4000A2006F0ADFD0021286806F09AFD322638
:1084E4004FF00009DFF874A0A3689B6903B320462A
:1084F400F91D9847E0B9FB79A3F120025E2A94BFE5
:108504001A462E22032100924046524607F002FCEE
:108514004FF00109013EE7D1B9F1000F04D1022166
:1085240040460F4A07F0E3FB642006F081FDB4E700
:10853400052006F07DFDEDE78A1401003C130100DF
:1085440028100100C5140100F8CC00200810010017
:10855400D9140100E9140100F2140100001501000E
:10856400101501002DE9F04F91B0009302F00403BF
:108574000293C2F3C2030133840705460E46DDF8B5
:1085840068800392059340F0BB81041D30B1072934
:1085940009D86FF01B0011B0BDE8F08F01F0070699
:1085A4003444C6F10806009B4FF000094FF0040A5A
:1085B400591E4FF0FF334F460193CB465346CDF837
:1085C40010900DB1009A22600598002800F3E8800D
:1085D4009848009A824203D397488242C0F0E080D0
:1085E400039AA4EB050E92074FEA9E0000F1038163
:1085F4000F2F00F2B180002D00F0058107F1400239
:108604000DEB020C019A0CF8200C0CF8102C0498B9
:1086140001300490E7E07A285DD84B280ED847282B
:1086240059D829282DD8252852D054D820287AD092
:108634002338D0F1000B4BEB000B74E04C382E28A0
:1086440049D8DFE800F07048484848484848484856
:1086540048484B484848484848484859484B4B596B
:108664005959704B6D487048184B184848827F4BD5
:1086740048484B487F0000204FF0000B4FF0040A9D
:1086840038E001222A38C0B202FA00F010EA0E0FD4
:1086940049D110F0625C2FD110EA020B43D060463E
:1086A400013C5444B4FBFAF40AFB04F4002D61D0F9
:1086B400A3EB050CA444B4453FF66BAF002868D186
:1086C400042B47D158F8043B2360042304342AE0E4
:1086D400019A013A01924FF0000B24E011F8010CC9
:1086E4006C2834D1002011F8023C83466C2BC5D190
:1086F4004FF0080A5346D3E708F1070828F00708A3
:10870400073424F00704F8E802AB35B10698204496
:10871400B0423FF63EAFC4E900AB4FF0000B083463
:108724004FF0080A534611F8010F002878D0BBF126
:10873400000F7FF470AF2528F5D14FF0010B019B9A
:10874400013301934FF0040AECE7584694E7002004
:108754008346A5E7082B02D06FF015001BE708F14C
:10876400070828F00708F8E80223C4E900230823CF
:108774000834D8E768B9042B02D108F10408A4E747
:10878400082BE9D108F1070828F0070808F10808C0
:10879400EDE7059A013A059258F8042B009210E788
:1087A400039A900720D54FF0010CA4EB050E4FEA75
:1087B4009E00BEF5007FCFD20F2FCDD8F5B107F1C3
:1087C40040020DEB020E019AC0B20EF8200C0EF816
:1087D400102CBCF1000F3FF41AAF60F07F000EF8CC
:1087E400200C09F101090137C5F108024FF6DA7EC0
:1087F4000434069297E74FF0000CDAE7BCF1000F5F
:1088040001D00136EFE7029802360028EBD1009838
:10881400CDE90631FFF7AEFCDDE906310644E2E7B7
:10882400631BB3F5806F97D245B9A6F10804E0182D
:10883400B1E600BF880F0100DC220100029A9B0808
:1088440028602B709DF81030C2B1EB7085F802904F
:10885400B9F1000F05D0002208A8C5F1010C974218
:108864000ED14FF0000AC5F101030DF12008019368
:108874000DF1300B574512D1601B8CE66B70E5E7A8
:1088840010F8013B190608D50CEB040EB64503F0AD
:108894007F033FF67EAE04F8013B0132DFE7B9F116
:1088A400000F03D098F90020002A17DB029BD3B1F4
:1088B4001AF80B2004F8012B0022019B181910440C
:1088C400B0423FF666AE98F80000009904F8010B38
:1088D4002046039208F08AFA039A14440AF1010A22
:1088E40008F10108C6E798F8002055F822300093F3
:1088F400029B009845F82230FFF73CFC421CDCE761
:108904006FF00D0047E600BF2DE9F04F97B000AFC0
:10891400D7F880B03B62CBF3C0030446894690F895
:1089240002A0FA62BB6141B9457800780AEB800085
:1089340020444D4517D8A0EB0409E378FB61BAF154
:10894400000F02D01BF0010F16D1FB6953BBFB6A69
:108954001BB1494620463A6A98474D4628465C373B
:10896400BD46BDE8F08F461C3046FFF703FC0130DE
:10897400304409F10109DCE7626823787A62FA6A13
:108984009900796104EB8301002A40F001810E46CD
:108994004FF000084D4601EB0A094E454CD101EB5E
:1089A4000A0610E01BF0020FD1D023789A007A61F6
:1089B400626804EB83017A62FA6A002A77D14D4631
:1089C400904601EB0A061BF0050F0CBF022301239E
:1089D400FB62FB6906EB430A0BF00203BB625645DC
:1089E400BCD016F8021B16F8013C54F82390994B9E
:1089F400994502D3984B994536D3BB69002B40D097
:108A0400786A06F061FD00283BD0E9468AB06A46E0
:108A1400924B53617B6AC2E906314FF400731384AD
:108A24008F4B42F8103F00234FF412518D4800F051
:108A3400EDFC023DCD46D2E716F8013BF96254F84D
:108A44002300FFF797FBD7F88430F96A01304BB164
:108A5400D7F8883098453EBFD7F8843023F81800FB
:108A640008F10108054498E7BB6923B1786A06F068
:108A74002BFD0028C9D11BF0010F05D1FB6AED1AAB
:108A8400ADE7BB6A002BAAD04846FFF773FBD7F8C3
:108A9400843053B1D7F8883098453FBFD7F8842045
:108AA400431C22F8183008F10108054497E7BAF18D
:108AB400000F73D01BF0040673D0D046002607F1D4
:108AC400480052463B61B96208F090F9B96A3B69C3
:108AD40001EB0A02BA62FA69F9695200FA60BA6AE9
:108AE40002EB41023A610BF00202BA603A69B96AD8
:108AF4008A4258D162781BF0020F18BF00217A62B3
:108B040008BF4FEA5801B2181BF0010FD2B240F06F
:108B14009F801BF0040F14BF40460020BB616270AD
:108B2400A070E17020463A6A7969FB6A9847051E8D
:108B3400FFF614AFBB69414623707B6A3A6A6370DF
:108B4400FB6984F802A0E37007F14800FB6A9847C8
:108B5400B0F10008C0F2BA807B69A9EB0A01C91A16
:108B6400FB683A6AC91AD7E90A0398470028C0F291
:108B7400AF804FF0000BA84408EB000507F1380A5A
:108B8400B34571D300213A6A0846FB6A9847E5E683
:108B940056464FF0000807F1380092E75646D04693
:108BA40096E7B04694E7BA6A12F8021B12F8015C21
:108BB400BA6254F82500274A904202D3264A9042CA
:108BC4001ED3BA6932B1786A7B6006F07DFC7B689B
:108BD40000288BD1BA6802BB08F1280207F1300CD7
:108BE40008F10100944407F1580208F1020852FA0E
:108BF40080F00CF8101C5FFA88F800F8105C75E738
:108C0400BA693AB1786A7B6006F05EFC7B6800283A
:108C14007FF46CAF1BF0010F09D006F1280207F1B5
:108C24003000711C161806F8205CCEB25EE71BF00B
:108C3400040F3FF45BAF08F1280207F1300008F19C
:108C4400010102EB000808F8105C5FFA81F84DE7B7
:108C5400002063E7880F0100DC2201003D150100BC
:108C640004000001EC1201001BF80A3054F82390B0
:108C740087F83730D7F884302BB3D7F888309B4542
:108C840021D2D7F8843033F81B8001213A6AFB6A79
:108C940007F13700984700281ADB0544B8F1000FA4
:108CA40006D14846FFF766FA00F101081FFA88F872
:108CB400414648463A6AFB6A9847002808DB05445F
:108CC4000BF1010B5CE74FF00008DEE7454645E693
:108CD400054643E680B505460E461746984605F018
:108CE4000FFB034608F044F90446DFF818904246A7
:108CF40049F8003039463046A84754F8090000F0D6
:108D04009DFF00BF080000002DE9F047058B0446D5
:108D14002807904611D4022905F0070540F0CC80BD
:108D2400204606F06FFE78B10138218B042811D853
:108D3400DFE800F0C2106D85950001290CBF45F0F5
:108D4400100545F02005258388F31188BFF36F8F44
:108D5400BDE8F08701F0070AAA4500F0A5800027C6
:108D6400B9463E46A368002B00F0BC8041F00801E0
:108D7400218388F31188BFF36F8FA168002900F065
:108D8400BA800D68002900F0B6803346524620466A
:108D9400D1F80480C047002D76D02B6829461D46A3
:108DA400F0E701F007035A1F012A1BD8002221F023
:108DB4000701062B276889B2C4E9002209D13B4682
:108DC40003E0628B013262831B68002BF9D141F00E
:108DD40002012046218306F015FE00287AD041F0D6
:108DE400200176E0042B0AD121F0070189B2204644
:108DF400218306F007FE10B141F020012183218B6D
:108E040001F0070AAA454FD00027B946AAE723690B
:108E140021F0070141F00601062DD3F800902183CB
:108E24002DD1B9F1000F3FD041F00801218388F31F
:108E34001188BFF36F8F20463949C84729E021F0D4
:108E44000701236941F0040189B2042DD3F8049089
:108E54002183E6D000274FF0040A3E4682E721F042
:108E64000701236941F0050189B2052DD3F8089063
:108E74002183D6D000274FF0050A3E4672E700272B
:108E84004FF0060A3E466DE72B4687E7B9F1000F1F
:108E9400D1D1EFF31188202383F31288BFF36F8FAE
:108EA400238B23F008032383258BEA062ED525F094
:108EB4001003238305F007056669218B002EBFF696
:108EC40070AF00232768C4E9003321F0070141F0A3
:108ED40001012183218B4FF0000901F0070AAA4503
:108EE4007FF440AF002F9CD041F00801218388F328
:108EF4001188BFF36F8F002FC8D03D6839463346C1
:108F04005246204606F0AAFD2F46F4E7AB067FF54D
:108F14001BAF25F02003238305F0070500E700BFFE
:108F24008DFA00002DE9F047044607464FF0010989
:108F3400DFF8508014B93846BDE8F08794FAA4F5F8
:108F4400B5FA85F509FA05F32E0108EB05156FEA64
:108F5400030A24EA03042B7B002BEBD058F80630D9
:108F64001B694BB94644736804222846196807EA0A
:108F74000A0706F04DFEDDE7284698470028D9D1B8
:108F8400F0E700BF4413010030B5002289B00F4957
:108F94000F4807F003FF002200230024CDE9062335
:108FA4000E230C4DCDE903344FF440722846CDE92D
:108FB4000144094B0949009404F0A4FE08492846D9
:108FC40007F08AFD204609B030BD00BFE98F0000DC
:108FD40000CB002078C60020D1920000E8D3002006
:108FE400F1150100014804F0D1BD00BF64C60020A2
:108FF4002DE9F047804621480F4606F0EFFD06466E
:10900400002833D000252846BDE8F087237B83B1B0
:109014002368DB680BB120469847636883F80690A1
:1090240023681B69D3B9636804222046196806F0D3
:10903400EFFD013610345445E8D3B8F1000FE2D007
:10904400002DDFD02846FFF76DFF0546002FF7D02F
:1090540000214FF4A47007F0F0FDF1E72046984793
:109064000028E0D009FA06F31D43E2E705464FF075
:109074000109034CDFF80CA0DDE700BF0CCD002094
:10908400441301004413010010B5044C237813B9B0
:10909400034804F07BFD0123237010BDB4D30020EA
:1090A40064C6002010B50446094806F097FD3CB19B
:1090B400084BD3E8EF1F0139C3E8E21F002AF8D1B7
:1090C400054807F077FEBDE81040044804F05EBD93
:1090D40004CD002008CD002000CB002064C6002071
:1090E40000200146034BD3E8EF0FC3E8E21F002A38
:1090F400F9D1704704CD002070B5FFF7F1FF0546A4
:10910400074C084EB44200D370BD63685B792BB141
:1091140023685B6813B12946204698471034F1E769
:10912400441301004413010010B5044C04492046C3
:1091340006F001FB034B1C6010BD00BF00C60020FD
:1091440068130100FCCC002000230C4A10B51370F6
:109154000B4A13600B4A13600B4B0C4A1A60FFF75F
:10916400E3FF0B4B0B4918468B4200D310BD1A1A70
:109174005C681211013222711033F5E7B5D3002077
:1091840004CD002008CD002080C50020DDFB0000B8
:109194004413010044130100014600220023014846
:1091A40006F0EABA00C60020014806F083BB00BFFF
:1091B40000C60020024B0146186806F0CFBB00BF72
:1091C400FCCC0020014806F004BC00BF00C600200F
:1091D40070B5274B1878002849D0FFF7E5FF0546FE
:1091E400002841D1234B244C1B68002B19DD07F0C8
:1091F4008EFD4FF47A72A0FB020302FB0131C30B14
:1092040043EA4143D4E900209B1A40F2E9324FEA91
:10921400D13161EB0001934271F1000101D3FFF7F9
:109224006BFFD4E9003213F57A7342F10002C4E90A
:109234000032BDE87040FFF7C5BF63685B7923B1B6
:109244002368294620461B6898471034B442F4D357
:109254002846FFF7AFFF094BD3E8EF1F0139C3E8F6
:10926400E21F002ABED0F7E7054C064EEEE770BDBC
:10927400B4D3002004CD0020F8CA002008CD00207B
:10928400441301004413010070B50D4D297861B9F0
:109294000120FFF7ADFE0B4C0B4EB44206D3FFF793
:1092A40097FF0028FBD101232B7070BD63685B79A5
:1092B4001BB1236820469B6898471034EDE700BF34
:1092C400B5D30020441301004413010000212DE90B
:1092D400F0470846FFF78CFE044658B340F267682F
:1092E4004FF0000907F044FE1B4B1C4A1B58136047
:1092F40033B11B4B1B68092B02DD1A4804F046FCF2
:109304000025194FDFF85CA044B12046FFF70AFEA0
:10931400044618B94FF0FF384FF0FF39FFF758FFF4
:10932400064628B9B5B942464B46504604F062FC9D
:109334003546E9E74FF0FF384FF0FF39D2E72B68A5
:109344009B691BB100222846114698471035BD423F
:10935400F5D3E8E7054DFAE70800000000CD00204A
:1093640008CD002064C6002044130100441301000A
:1093740013B5184806F032FC174B1B7873B1EFF3A2
:109384001184202383F31288BFF36F8FFFF720FF2C
:1093940084F31188BFF36F8F02B010BD0F4B1B68AD
:1093A400002BF9D050B9002200230D48CDE9002349
:1093B4004FF40042002305F08DFAEDE70928EBD1C4
:1093C400074807F0F7FC074802B0BDE8104004F076
:1093D400DDBB00BF08CD0020B5D3002000CD0020A8
:1093E40000CB002064C6002010B5064B04461B6861
:1093F40098472146A060044806F03DFABDE81040B5
:10940400FFF7B6BF80C5002000C600202DE9F04F4D
:109414008FB0C1F34A2804AF0D469146B8607B6013
:109424000C0DB8F1000F63D000264FF0040B4FF081
:109434000A0A07F11403C7F80C80C7E907667E62BD
:109444000193CDF808B0CDF800A007F11C03324613
:109454004846F968FFF758FAB0F5006F03461CD385
:109464006C468AB0D9F8041004AB26481A46C3E9FE
:10947400050140F2FF71D9614FF400711984224B48
:1094840042F8103F4FF4125133462048FFF7BEFF15
:10949400A5462C37BD46BDE8F08FC0F30A0804F199
:1094A4001700184420F0070080083B60FFF774FEA3
:1094B40068F35325044690B13B6800F11001C7E9F5
:1094C400083607F11403F961CDE900A3CDF808B01B
:1094D40048460F4AF96807F11C03FFF715FA68F3C9
:1094E40053252A4620467B68B96806F0B0FBD0E7CE
:1094F40004F1170020F007008008FFF74DFE044632
:10950400EDE700BF0616010004000001FC12010093
:1095140027FC00002DE9F04F87B00446DDE9105A1E
:10952400DDE91279934698460391BFB13B46524612
:1095340010210020CDF80090CDF81490FFF712F818
:10954400B0F5006F06460AD340F2FF730221174AB2
:10955400174807B0BDE8F04F06F0D2BB3E4605F110
:109564001700304420F007008008FFF715FE04F0D0
:1095740007040BF0070BE40044EA8B1444EA462486
:1095840044EA0554054640B13FB13B465246314694
:10959400CDF800901030FEF7E5FF434622462846FA
:1095A400039907B0BDE8F04F06F051BB4516010022
:1095B400FC120100014B0360002070477C13010082
:1095C40008B5044805F0A5FFBDE80840024805F0C9
:1095D400A0BF00BF7D160100B21601002DE9F047BF
:1095E40006460C4600AF002936D0D1E90012E94600
:1095F4008AB06D46A3684FF0050AA8461F48C5E91E
:109604000723C5E9050148F810AF002342464FF48B
:1096140021511B48FFF7FAFED4E90312CD466369D2
:10962400AD461848C5E90723C5E90501C5F810A0EA
:10963400002342464FF421511148FFF7E7FECD467F
:10964400E3690121104A0E4806F05AFBA36901217F
:109654000E4A0B4806F054FB012E07D1EFF30583A5
:109664000B4A31460648103B06F04AFB2146304679
:1096740003F004FFBD46BDE8F08700BFE01601001B
:10968400241301000F1701003E1701004D170100BC
:109694007B17010030BFFFF7FDBF00BF2DE9F0418C
:1096A40005460B4EDFF82C80324606EB0807CC1B30
:1096B4002046094907F09AFBA01942460021083CBC
:1096C40007F0A1FB2C6707F10800BDE8F08100BF9B
:1096D400000000000800000044130100054B5A6913
:1096E4009B689A421FBF044A536843F080535360F7
:1096F400704700BF84D3002000ED00E070B52A4C11
:1097040006460D4629482A4906F01BFBA36ADB06D8
:1097140047D52648274906F014FB1120A36A1C07E5
:1097240004D52248244906F00CFB12201E4CA36ADF
:10973400990712D521491D4806F003FB636BA26A01
:10974400120609D501211E4A184806F0D9FA1EB19D
:10975400A36A23F08003A3621320134CA36ADE07D9
:1097640004D51248174906F0ECFA1420A36A9C06A3
:1097740004D50E48144906F0E4FA15200A4B9A6AF7
:10978400D10658BF9A6A9A6A920642BF5A6A22F46C
:1097940000525A629A6A42F0FF029A6200232B70C6
:1097A40070BD1020BAE700BF00ED00E024130100F3
:1097B4008E170100A4170100D7170100EA17010052
:1097C40002180100181801003718010010B5244CC4
:1097D4002449254806F0B5FAA36A99013ED52248E2
:1097E400224906F0AEFA1E20A36ADA0104D51E4807
:1097F4001F4906F0A6FA1F20194CA36ADB0204D500
:1098040019481C4906F09DFA0220A36A1C0304D5DA
:109814001548194906F095FA2120114CA36A5903F9
:1098240004D51148154906F08CFA2220A36A9A033C
:1098340004D50D48124906F084FA2320084CA36A83
:10984400DB0304D508480F4906F07BFA2420A36AF9
:109854006FEA03436FEA1343A36210BD1D20C3E7FD
:1098640000ED00E066180100241301007E180100D9
:1098740091180100AB180100D5180100F31801007C
:10988400181901003219010070B5294C06460D461D
:109894002848294906F055FAA36AD9043CD5254835
:1098A400264906F04EFA1720A36A1A0504D5214862
:1098B400234906F046FA18201D4CA36A9B0512D5CD
:1098C4001C48204906F03DFAA36BA26A100409D58E
:1098D40001211D4A174806F013FA1EB1A36A23F4A6
:1098E4000043A3621920124CA36A590504D51148F8
:1098F400164906F026FA1A20A36ADA050ED50D4891
:10990400134906F01EFA1B20094A936A43F47F4365
:10991400936200232B7070BD1620C5E7A36A9B04D5
:10992400F2D504480B4906F00CFA1C20ECE700BF02
:1099340000ED00E0241301005D190100731901001A
:10994400D7170100841901009D190100B219010003
:10995400CD190100371801002DE9F0478AB0694B91
:109964000446D3F804A089461646002500AFCAF37E
:10997400080885F31188BFF36F8F02F07F43B3F1BA
:109984007F4F1ED1D3071CD4500603D4110708D42B
:10999400012508E05C495D4806F0D3F916F0040699
:1099A40000D04C4600250023FB71A8F10303092BCA
:1099B40000F28680DFE803F0077C7F788484848467
:1099C40084822C46EFE75249504806F0BAF9002346
:1099D4004C4EFB71F36A9A0705D54E494B4806F085
:1099E400B0F9002329E0F36A002B01DA4A49F5E7CC
:1099F400F36A5B00F5D54949444806F0A2F9736956
:109A0400A26943F480737361BFF34F8FBFF36F8F09
:109A1400736932F8022C23F480737361BFF34F8FA0
:109A2400BFF36F8F4DF602739A4228D12368012148
:109A34003B4A364806F064F92368FA79DAB907F143
:109A4400080604F1200C324620686168083403C219
:109A540064451646F7D17A6A002D4ED0C2F3080148
:109A640021B96FEA52226FEA42227A62184607F15C
:109A74000801FFF7B3FD2837BD46BDE8F087B36A98
:109A8400DBB223B10120F91DFFF738FE0EE0B36A03
:109A940013F47F4F04D00120F91DFFF7F5FE05E014
:109AA400B36AB3F5803F9CD3FFF790FE0346C4E747
:109AB4000020F91DE8E70020F91DEEE719498DE7BC
:109AC400194A6E461AF4F87F8AB0184B18BF134629
:109AD4006A461749C2E90513A8F11003D3614FF48C
:109AE40000731384134B42F8103F00234FF41151B9
:109AF4000648FFF78BFCB54673E722F4FF7222F0A9
:109B04000102B2E700ED00E0131A01002413010082
:109B1400361A01004D1A01006E1A01007C1A010068
:109B24009B1A0100B71A0100FA190100E519010096
:109B3400DB1A010004000001064B5A6942F01002CE
:109B44005A615A6942F480625A615A6922F00802E1
:109B54005A61704700ED00E0EFF30880EFF30981EC
:109B640001B57246FFF7F8FE01BD00BF002080F387
:109B74001488BFF36F8F002080F30A8880F30B886A
:109B84000F4880F3088806F02FFC00200D49086078
:109B9400BFF34F8F00F02CF8202080F311880A487F
:109BA4004FF40061401880F30988EFF31480022118
:109BB400084380F31488BFF36F8F00F0EFF80000C0
:109BC40028F0002094ED00E0E8D600200023184699
:109BD4000649D1F89020C2F30722934200DB704774
:109BE400C1F89830C1F8A0000133F6E700ED00E0B9
:109BF40010B572B6002484F31388FFF7E7FF2346F9
:109C04004FF0FF300C4A03F120010133102B42F8CE
:109C14002100F8D100234FF0FF30074A03F160011F
:109C24000133102B42F82100F8D162B6BFF34F8FF5
:109C3400BFF36F8F10BD00BF00E100E0084B9B68CD
:109C440083420BD1EFF3058343B1064B5A6842F0CC
:109C540080525A605A6A22F400425A6204F056BB97
:109C640084D3002000ED00E016498A6882F87DE084
:109C74004FF030001044EFF3098C80E8F01F2020EF
:109C840080F31288BFF36F8F0F4F4FF000664A695D
:109C94008A603E60106F0D4C206092F97DE0506F39
:109CA4000023536780F3118802F1300090E8F01F1D
:109CB4008CF3098802F1000004B506F04CF8BDE805
:109CC4000440704784D3002004ED00E010CD002050
:109CD4001EF0040F0CBFEFF30880EFF309808169D5
:109CE40011F8021C0229FFD001B5724606F01EF8D5
:109CF40001BD00BF40B2002807DB01234109034A2C
:109D040000F01F00834042F82130704700E100E07A
:109D140040B200280CDB01220649430900F01F0071
:109D24008240203341F82320BFF34F8FBFF36F8F5E
:109D3400704700BF00E100E0054B420953F82220C0
:109D4400012300F01F0003FA00F01040704700BF29
:109D540000E100E040B2002801F10101ACBF00F1D4
:109D64006040064B4FEA4111C9B2ABBF00F56140F8
:109D740000F00F0080F800131954704714ED00E050
:109D8400044B054A23F07F039360BFF34F8FBFF367
:109D94006F8F70470080000000ED00E008B5FFF70A
:109DA400EFFF074AD2F8883023F47003C2F88830F2
:109DB40003F050FC04F0CCFB00F048F803F08AFCFC
:109DC40000ED00E042F8203C009B0C4942F81C3CAA
:109DD400019B21F0010142F8183C029B42F8081C47
:109DE40042F8143C4FF0807342F8043C002343676C
:109DF4004FF43C43203A0265C3677047D98C000096
:109E040000B50B4B15469860026F0A4B0E461A605C
:109E1400036E83F30B882C4686F309880020064BD7
:109E240098472046002100220023044C204700BF0D
:109E340084D3002010CD002063FD0000D98C0000E5
:109E44001022014B1A61704700ED00E0002320212D
:109E54000348C2180133412B82F80013F9D170472B
:109E640000E100E008B5EFF30583064A103B02EB7E
:109E7400C30152F8330049688847BDE80840FFF73A
:109E84002DBC00BF481001001FB5094C094A2346E8
:109E94000121094800F086F900230393074B0121AF
:109EA400E41A01A80193029400F086F904B010BDED
:109EB4000000042080C500207C13010078C6002027
:109EC400F8B50C7A0B6804F01F0223F01F031A4341
:109ED400CB68640923F01F0343EA4403124C43F0A4
:109EE4000103C4F89800C4F89C20C4F8A0300B7A8D
:109EF40000AF8CB00D6803F01F046A46C9685B09A3
:109F0400C2E90A310823094EC2E908545661084ED1
:109F1400C2E9066042F8103F00234FF4824105482D
:109F2400FFF774FABD46F8BD00ED00E0F21A010037
:109F3400F91B010014130100F8B5164A0346D2F8C0
:109F440090200D46C2F30722013A904200AF09D98E
:109F54000121114A114805F0D3FE6FF01504204683
:109F6400BD46F8BD6E4688B004466A460C4B536144
:109F74000C4BC2E90630042342F8103F00234FF48F
:109F840004510648FFF742FA2946B5462046FFF732
:109F940097FFE4E700ED00E0171B01001413010034
:109FA4003D1B0100051C0100F0B585B06E4600AFF5
:109FB40088B004460D466A46134B5361134BC2E9FD
:109FC4000630042342F8103F00234FF40451104894
:109FD400FFF71CFA29686B682A8968893960013B94
:109FE40021F01F010B4402F01F0242EA40123946DD
:109FF40023F01F03B54620463A72FB60FFF79CFF2F
:10A004001437BD46F0BD00BF621B01001E1C0100D9
:10A01400141301002DE9F04F8946144606464FF00B
:10A024000008514D85B0C84527DAD6F804A0BAF126
:10A03400000F44D0BAF11F0F17D91AF01F0F14D113
:10A04400D6F800B01BF01F0F0FD1584605F0AAFE3A
:10A0540007460AEB0B00013805F0A4FE874210D036
:10A064006FF01507414A3B4601E04346404A01214F
:10A07400404805F045FE6FF01504204605B0BDE8E4
:10A08400F08F17F1160FEDD0BC42EBDDC5F89870D8
:10A09400D5F89C10C5F89870D5F8A03021F01F01B0
:10A0A40043F01F0BD6E900321A44994202F1FF3AF9
:10A0B4001DD1D34507D13146F8B2FFF775FF08F13A
:10A0C40001080C36AFE73146C5F89870D5F89C30D6
:10A0D40022F01F0203F01F031343C5F89C30E0B2C3
:10A0E400FFF762FF10F1160FC5D0441CE7E7C5F86F
:10A0F4009870D5F8A020013B23F01F0302F01F0243
:10A104001343D3453146E0B2C5F8A030E8D0FFF799
:10A114004BFF10F1160FAED0C5F89870D5F89C20FF
:10A124009DF808300BF1FF3B62F304038DF808300F
:10A13400D5F8A0309DF808205B0863F347128DF82A
:10A144000820D6E900321344009323F01F035B4434
:10A15400A3EB0A03013023F01F036946C0B2039343
:10A16400FFF7EAFEBEE700BF00ED00E0AC1B010014
:10A17400891B0100141301000522044BC3F8942029
:10A18400BFF34F8FBFF36F8F704700BF00ED00E048
:10A19400BFF35F8F0022024BC3F89420704700BFC7
:10A1A40000ED00E010B5034C2278FFF733FF207078
:10A1B40010BD00BFB6D300202DE9F74F294D8A46C4
:10A1C40006464FF00008AB46274FD0451BDAD6F8B9
:10A1D4000490B9F1000F3FD031680846019105F0B1
:10A1E400E1FD0199044609EB0100013805F0DAFDAF
:10A1F40084424FF014021D4B08D002FB08F36FF0A9
:10A2040015024BF8032003B0BDE8F08F14F1160FCC
:10A214002C60F8D01978A142F5DD02FB08B0C7F82C
:10A224009840C7F89840D7F89C4000F10801007B9B
:10A2340064F304000871D7F8A0000C79400860F3B7
:10A2440047140C71D7F89C1021F01F016960D7F8EE
:10A25400A01021F01F01296108F1010814350C3602
:10A26400B3E700BF14CD002000ED00E0B6D300201A
:10A274002DE9F04186B04F4C4F4ED4F890303568FC
:10A28400C3F307239D4200AF00F29180E84688B0F3
:10A29400D4F890306A46C3F30723D36104234749B3
:10A2A40051614749916142F8103F00234FF4045132
:10A2B4004448FFF7ABF8C546FFF76AFF424BC4F8C2
:10A2C400C0300024AC4217D3404C381D2570FFF732
:10A2D40071F900250646DFF8F880AE4214D100205B
:10A2E40023783449D1F89020C2F30722934258DBF3
:10A2F400FFF742FF002031E07168204601EB0411B2
:10A30400FFF7DEFD0134DDE77968280101EB051371
:10A31400DA6802EA0802B2F5001F23D0B2F5800F12
:10A324002DD0B2F5801F3AD15A689B680958013B79
:10A3340022F01F0003440120844623F01F0340EA57
:10A344004C10C7E90221387407F1080120787B61B9
:10A35400FFF7F2FD00281FDA6FF015001837BD462D
:10A36400BDE8F0815A689B680958013B22F01F0040
:10A3740003444FF0020C012023F01F03DFE75A6867
:10A384009B680958013B22F01F0003444FF0000C66
:10A39400062023F01F03D2E723780133237001350D
:10A3A4009BE7C1F89830C1F8A00001339AE74FF059
:10A3B400FF30D3E700ED00E088130100CF1B01005C
:10A3C400EA1B010014130100AAFF4400B6D30020C5
:10A3D4000000F0FF08B50649064821F00701C1F165
:10A3E400005202F5802205F017F8002008BD00BFD6
:10A3F4002FF2002028CD00200122024B0020C3F8B8
:10A40400402570470090034020B1034B800143F086
:10A4140001031847704700BF60130100084B70B573
:10A42400C31A0D4607499B10044659434022064867
:10A4340005F0CAFC2B4601462046BDE8704018478B
:10A4440048CD0020B76DDBB6E80F0100402373B59B
:10A454000B4C0093041B0B460D460A49A4106143A0
:10A464000646094A094805F0DAFC011E05DA3046B9
:10A474002B4602B0BDE87040184702B070BD00BF63
:10A4840048CD0020B76DDBB68BFE0000E80F01005D
:10A4940010B5EFF31184202383F31288BFF36F8F79
:10A4A400074A136823F00201DB07116002D401207C
:10A4B40005F0A5FF84F31188BFF36F8F10BD00BFB3
:10A4C40098CD002070B50022012104460520FFF735
:10A4D40041FC0F4801F0EAFA0E4B984215D101F005
:10A4E400F5FA26690C49304605F0DBFA00280BDB47
:10A4F400012535642469084904F11C0005F0D1FAEA
:10A50400002801DB0020E56470BD6FF00400FBE768
:10A5140065A600000000AD0BB01301001FB50022BA
:10A524000123CDE902236B46084ACDF800D0CDF8CB
:10A5340004D005F0A1FC002805DB4FF48042002381
:10A54400684603F057FB05B05DF804FBA9FE000064
:10A554000C2100232DE9F04141431B4A05460A44DE
:10A56400D2E90E6800AF9363EFF31180202484F3E3
:10A574001288BFF36F8F146C04F0C00444F002041B
:10A58400146480F31188BFF36F8F104A6C460A4439
:10A594008AB091686A460E4850610E48C2E90601C5
:10A5A40040F2013111840C4942F8101F4FF4145148
:10A5B4000A48FEF72BFFA5461EB142462946084825
:10A5C400B047BD46BDE8F08148CD0020BC13010072
:10A5D400461C01005C1C010004000001F41201008F
:10A5E400E80F010010B4EFF31182202383F31288E3
:10A5F400BFF36F8F1748016841F002040460C80775
:10A6040007D482F31188BFF36F8F012010BC01F0CF
:10A6140071BA1149D1F80C04D1F80C14C907F0D55A
:10A62400EFF3118083F31288BFF36F8F0B490B6C28
:10A6340003F0C00343F002030B6480F31188BFF3FB
:10A644006F8F82F31188BFF36F8F002010BCFFF768
:10A654007FBF00BF98CD00200050004048CD0020AF
:10A6640010B1012804D07047034B1B6C5B0701D168
:10A67400FFF76EBF704700BF48CD00202DE9F041C1
:10A68400012207463449D1E8EF3FC1E8E02F002812
:10A69400F9D133B9314932484B60CB608A6005F057
:10A6A40013FA7B1E012B28D8012F06D12D4BD3F88A
:10A6B4001C3403F00303022B1FD006F007FA0546EF
:10A6C400E8B9294B1B78D3B102220646254BC3F8BF
:10A6D4000823244CDFF89480D4F81824D4F81834D0
:10A6E400D20315D503F00303022B01D0012F0FD1A0
:10A6F4006DB386F31188BFF36F8FBDE8F081EFF37C
:10A704001186202383F31288BFF36F8F0125E0E7BE
:10A71400C5B1304605F037FBD4F81835DBB2012B50
:10A72400DAD1D4F80421002AD6D00022C4F80421B6
:10A73400D4F804210222C4F818252022C8F8802164
:10A74400A360C9E70021212006F077FAE4E702229A
:10A75400044BC3F80423D0E744CD002034CD0020BB
:10A7640064CD002000500040E5D3002000E100E06B
:10A77400430970B507D10B4B596821B101250C6809
:10A78400094E854001B970BD8A682A4002D030461E
:10A794004B6898471CB1236821461C46F2E72346C0
:10A7A400FAE700BF9CCD0020081001002DE9F0431A
:10A7B40040F206354668D00648BF0320337B02EAE0
:10A7C400050558BFC2F3401087B001F01F07B5F567
:10A7D400837F144647EA43178DF8030041D00FD80E
:10A7E400062D18D007D8B5B1022D3CD06FF0150056
:10A7F40007B0BDE8F083B5F5807FF7D101250AE005
:10A8040040F20222954230D0B5F5407F2FD0B5F505
:10A81400007FEBD1022522032BD5012372688B40E4
:10A824009360326962BB07F01F037F0975D13D4A0B
:10A8340084F4803102EB8302D2F80032C1F3004188
:10A84400C4F3404423F4E16344EA410423F00703DE
:10A854001C4344EA800444EA0524C2F80042002070
:10A86400C6E70725D7E70425D5E70525D3E703255C
:10A87400D1E7630341BF012372688B40D360D0E703
:10A884001036394630460DF1020201F0F3FB14F4A0
:10A89400403F80460CD13946304605F00AFE224B33
:10A8A4009845DCD130469DF8021001F023FCD6E730
:10A8B4004FF0000901AB3946304603AACDE904390B
:10A8C400CDE90199CDF80C9001F0A2FA164B98420B
:10A8D4008CD114F4003315D09DF8033084F4803403
:10A8E400C4F300448DF80E3039464B46304603AA73
:10A8F4008DF80C508DF80D4001F03EFB0A4B984248
:10A90400CDD073E7CDE9043339460DF10303304666
:10A9140003AA039301F07CFAF0E7803352F8233062
:10A92400FFDE00BF002584400000AD0B38B545684C
:10A934002B69B3B11035284601F0D2FB044680B927
:10A944000146284601F0A8FB084B98420BD1224649
:10A954002846074901F088FB224605213120FFF7EC
:10A96400F9F9002038BD6FF00400FBE70000AD0BDF
:10A9740075A70000F0B51646426801F01F04107B6D
:10A9840087B044EA4014106900286DD0B6F5001F62
:10A9940002F1100506D12146284605F08CFD002061
:10A9A40007B0F0BD0027B6F5800F01A801974760F6
:10A9B40037D1B3F1007F14BF052304238DF804308D
:10A9C4000023CDE90403039393680DF1030723FAED
:10A9D40001F111F0010139D1B6F1A07F36D104F0B3
:10A9E4001F03620903F1800344D1244A52F823303F
:10A9F400DB072BD43A462146284601F03BFB204B8B
:10AA0400984219D002972146284603AA01F000FA79
:10AA14001C4B98422BD101222146284601F07AFB97
:10AA2400BDE7B3F1C06F05D0B3F1007F14BF0123BC
:10AA34000223C3E70323C1E73946284601F062FB3A
:10AA4400104B9842DED06FF00B00A9E73A4621463E
:10AA5400284601F00FFB0B4B9842D4D128469DF8B1
:10AA6400031001F047FBCEE76FF0850098E76FF025
:10AA7400150095E751F82330FFDE00BF0025844020
:10AA84000400AD0B0000AD0B2DE9F04740F2FF16BA
:10AA9400594FDFF868C1DFF868E100EB81018142BA
:10AAA40002D10020BDE8F087046814F4804FC4F399
:10AAB400C325C4F3080340F08C80240EB34208BFBE
:10AAC4004FF0FF337D5D192C00F28680DFE804F03F
:10AAD4000D13191C1F251C8484848436608484848B
:10AAE40084848484848463787B7EC2F80C355C1C03
:10AAF4005BD10430D3E7C2F814355C1CF9D00024D0
:10AB04005CE0C2F80835F2E7C2F81035F5E75C1CE2
:10AB1400C2F80835EDD0002404E05C1CC2F80C3502
:10AB2400E7D001245FEA531859D14FF00109DFF847
:10AB3400CC8009FA03FAC8F80CA008E0C2F808357A
:10AB4400002DDAD15C1CD4D000240625A146D0F80F
:10AB540000A00AF40048B8F1000F1CBF4FF0000930
:10AB6400012403F01F085B093FD10CEB8808D8F8D7
:10AB74000032CAF3412A03EA0E0343EA8A0343EA92
:10AB8400052343EA090343EA4403C8F80032B0E763
:10AB9400C2F80C35D4E7C2F86035B3F1FF3F04685E
:10ABA400A7D0C4F30044002CBBD05C091AD1012403
:10ABB400DFF8488004FA03F9C8F80890A146C6E70C
:10ABC400C2F86435E9E7C2F86835E6E7C2F86C35DF
:10ABD400E3E76FF0150065E76FF0850062E7002397
:10ABE400DB60FFDE00239B60FBE7002308F18008A5
:10ABF40053F82830F5E700BF9F1C0100002584406E
:10AC0400F0F8FCFF2DE9F84304460E46456805F0CC
:10AC14005DFF63684FF02009D3F8008088B9234AA8
:10AC2400127872B16427606805F043FAF0B9012024
:10AC340005F0DCFB013FF6D10021212005F0FDFFEA
:10AC4400F0E7EFF311810F4689F31288BFF36F8F9A
:10AC5400606805F02EFAA8B981F31188BFF36F8FED
:10AC6400EFE781F31188BFF36F8FE5E7EFF311810D
:10AC74000F4689F31288BFF36F8F606805F019FAE5
:10AC84000028EED06B6801225B0744BF4FF48003B9
:10AC9400C8F80433AB6920461E70A96905F040FA70
:10ACA40087F31188BFF36F8FBDE8F883E5D30020E5
:10ACB400F8B50546002201210820FFF74BF80820CB
:10ACC400FFF718F86C680121E06805F002FA6B6878
:10ACD4001A682369C2F82435617D237D0B43A17D65
:10ACE4000B43C2F86C356E68D6E9004313F00103D8
:10ACF4003AD02F6907F10C0000F074FE274B9842FC
:10AD040007D027480121274A04F0F1FF6FF004001F
:10AD1400F8BD387B04F10C0204F5907105F068FB72
:10AD2400387B012707FA00F000F056FE0823C4F828
:10AD34000035B369C4F844350023C4F84835A76026
:10AD4400D4F85831002BFBD00023C4F800356B68CD
:10AD5400596811F0040105D1D86805F0BAF968689A
:10AD640005F0C6F90020D3E70822C4F80025B2692B
:10AD7400C4F84425C4F848350123A360D4F820312D
:10AD8400002BFBD00023C4F82031D4F82031012358
:10AD9400E3604FF48073C4F80433D1E70000AD0BD3
:10ADA40034130100A71C01000123834070B5DC4368
:10ADB4000B4AD2E8EF1F01EA0405C2E8E65F002E61
:10ADC400F7D14FF4803282400648C0F80823BFF31D
:10ADD4005F8FBFF36F8F0B4214BF0120002070BD43
:10ADE400ACCD00200050014070B40E4922F07F46E3
:10ADF400D1E90034D01AC31844F10004C1E9003485
:10AE0400A6F50013B3F5400F09D2074B1B681A0AC5
:10AE14001B069C19054B42F10005C3E9004570BCB3
:10AE240003F072BC48CB0020B0CD002050CB0020F2
:10AE3400D9B101230D4A8340D2E8EFCF4CEA030C89
:10AE4400C2E8E1CF0029F7D14FF48033084A8340A8
:10AE5400C2F80433074BD3E8AF3FC340DB0742BF1C
:10AE64004FF40012044BC3F800217047ACCD00200E
:10AE740000500140A8CD002000E100E00D4B18680F
:10AE8400010A0006BFF35F8F0B4BD3F80435181883
:10AE940041F10001B3F5801F0AD2084BD3E9002326
:10AEA400904271EB030303D210F1807041F1000171
:10AEB400704700BFB0CD00200050014050CB0020AF
:10AEC4002DE9F04F85B016461F4604469DF840A074
:10AED400FFF76AFF0190FFF7D1FFB04271EB070360
:10AEE40052D23B4B301A67EB0101984271F10001D9
:10AEF4004DD2384B03EB0413D3E902239F4208BF1E
:10AF0400964258D04FF48038334908FA04F8204662
:10AF140026F07F4BC1F8488305F0CBF94FF00309C5
:10AF2400584604F15005AD00ADB205F1804504F575
:10AF3400A87305F5A8350293029A20F07F4341F8DF
:10AF44002230C1F84483D1F80435244AC01A0338A6
:10AF540020F07F4090422ED9286868B1D1F804359A
:10AF6400A3EB0B0020F07F40B0F5000F039322D930
:10AF7400204605F09EF9039BBAF1000F07D109EBB7
:10AF8400030009F10109D7E7BAF1000F09D06FF006
:10AF9400150520460199FFF74BFF284605B0BDE88B
:10AFA400F08F01230E4AA340D2E8EF0F1843C2E802
:10AFB400E10F0029F8D107490E982301C8500F9BCF
:10AFC40001EB04120025C2E902675360E1E700BF08
:10AFD4000100800038CB002000500140FDFF7F00BD
:10AFE400A8CD00207FB500254FF0FF304FF0FF3192
:10AFF400194C1A4B0226C4F80833C4F84833184BCA
:10B00400C4F80855C3E902014FF480334FF4001229
:10B01400C4F80433134B0121C4F804631520C3F8A6
:10B0240080212A46FEF796FE1520FEF763FE0123D3
:10B034000D4AA360236013600C4B0D4A009328460D
:10B044000023CDE90155FFF73BFF3046FFF716FB20
:10B05400284604B070BD00BF0050014003000F003B
:10B0640038CB002000E100E0ACCD0020EDAD0000C5
:10B07400FFFF7F002DE9F7432E4BD3F804239007FD
:10B084000BD5D3F8042142B10022C3F804212A4A83
:10B09400D3F80431136801331360264AD2F8043319
:10B0A400D90326D5254BD3E8EF1F21F00100C3E8CF
:10B0B400E40F002CF7D1CB0702D4D2F84031C3B14E
:10B0C40000251C4CC4F84051D4F84031FFF7D6FE9B
:10B0D400EFF31182202383F31288BFF36F8F184B91
:10B0E400D3E90267B042B94106D282F31188BFF3B3
:10B0F4006F8F03B0BDE8F0834FF0FF38D3E9001041
:10B104004FF0FF391D60C3E902894FF48033C4F85E
:10B114004833C4F84051D4F8403182F31188BFF366
:10B124006F8F0029E5D0009032463B462846884779
:10B13400DFE700BF00500140B0CD0020A8CD0020C3
:10B1440038CB002030B5431C124C85B005D0844266
:10B15400A8BF0446012CB8BF0124FFF78FFE0E4B95
:10B164000C4DD3E90013401AB0F5000F0FD222188A
:10B17400AA4228BF2A46002052180849CDE90100F6
:10B18400009143F10003FFF79BFE05B030BD2A4652
:10B19400F1E700BFFFFF7F0048CB0020EDAD0000CA
:10B1A40008B5FFF76BFE024B1B68C01A08BD00BF51
:10B1B40048CB0020F0B50F4B01461A680E4B0B2507
:10B1C400002618461F46B84201D3013D04D1184653
:10B1D400013A19605A60F0BD04688C42FBD03CB15E
:10B1E4004468141BA642BCBF034626460830EAE75F
:10B1F4000346ECE734CE002040CE00200020054B6F
:10B20400C3E90000044BD3E8EF2FC3E8E10F0029A2
:10B21400F9D1704738CE002034CE00202DE9F04F0C
:10B2240087B005460E4605F048F920B96FF06D0069
:10B2340007B0BDE8F08F05F06AFD33680446002BC3
:10B244000F4604D102F09AFF6FF00A00F0E7BCBF8A
:10B254004FF0FF3333600122002101A805F02AFCDE
:10B26400E8460595EFF3118B202383F31288BFF38F
:10B274006F8F05F07DFEDFF828A1DFF828915AF8DA
:10B284000000FFF797FFD9F8003042689A426ED168
:10B294000023454D00936B68002B6FD1C5E90088EE
:10B2A4008BF31188BFF36F8F33685A1C6BD04FF444
:10B2B400004E40F2E730002123EAE37C4FF47A7237
:10B2C4000023CCFB0E01FCF73BFF02460B4601A812
:10B2D40002F090FCEFF3118B202383F31288BFF369
:10B2E4006F8F00222B685BB1434556D10099002A29
:10B2F4004DD16A6829609A4200D1696000230093A5
:10B3040005F036FE5AF80000FFF754FFD9F8003074
:10B3140043608BF31188BFF36F8F05F0CEF80028DC
:10B3240084D035686B1C27D005F0F1FC4FF47A7E8D
:10B33400A0FB0E320EFB0121A4FB0E420EFB0722E2
:10B34400DB0BE40B43EA414344EA42441B1B4FEA50
:10B35400D1314FEAE57C61EBD231ED1A6CEB010C93
:10B36400BCF1000FB8BF002535602DB96CE7436010
:10B374008BF31188BFF36F8F002059E7C3F8008067
:10B38400C5F804808CE74FF0FF3213469FE7116045
:10B394006968994208BF6A60B0E71A461B68A2E769
:10B3A4000800000034CE002038CE0020024600B54C
:10B3B40005F0DEFD014B1A505DF804FB0C000000A3
:10B3C40030B404682CB10C4B9C4202D380339C42B1
:10B3D40009D30A4B1C78072C09D8651C1D70064B31
:10B3E40003EB04130360006830BC05F063BB6FF02B
:10B3F4000B0030BC704700BFB4CD0020D9D300206F
:10B4040038B505460A4BD3E8EF1F0131C3E8E21F04
:10B41400002AF8D1074B1C6804B938BD6369AB42F4
:10B4240001D005B113B9201D02F0B0FB2468F3E785
:10B4340034CE002038CE00200146002200230148EB
:10B4440002F0C4B990CE00200146014805F00BBBC0
:10B4540090CE0020014600220023014802F0B6B934
:10B46400A4CE00200146014805F0FDBAA4CE002078
:10B474002DE9F0470546134B134EDFF85080DFF8F3
:10B48400509000AFB34203F1080402D3BD46BDE8B7
:10B49400F087EA4688B06A4654F8083CD36104232E
:10B4A400C2E9058942F8103F00234FF404510948CA
:10B4B400FDF7ACFF54E90231D546284698472346A8
:10B4C400E0E700BFCC220100CC220100EA1C01000D
:10B4D400241D01001C13010003460121014A0248F6
:10B4E40004F00EBCFF1C01001C13010008B1FFF79F
:10B4F400F3BF014801F02ABB75B40000B0B56D4636
:10B5040000AF8AB004466A460F4B53610F4BC2E941
:10B51400063040F2013313840D4B42F8103F0023F0
:10B524004FF414510B48FDF771FF2146AD460A480C
:10B5340001F012FB034620B10121084A054804F03A
:10B54400DFFBBD46B0BD00BF321D01008E1D0100F2
:10B55400040000010C1301004D1D0100501D0100E9
:10B5640003460121014A024804F0CABBFF1C010042
:10B574000C13010008B518B1BDE80840FFF7F0BF8F
:10B584000B4804F0EEFE0B4804F0EBFE084804F010
:10B59400E8FE074804F0E5FE054804F0E2FE04482E
:10B5A40004F0DFFEBDE80840014804F0DABE00BF45
:10B5B400801F0100761D010010B50749074804F0FB
:10B5C400E8FE044628B101210346054A054804F073
:10B5D40097FB204610BD00BF39B80000B8CE00204C
:10B5E400B61D0100241301002DE9F041DFF8D481D8
:10B5F4000D46D8F8704000AF072C00F008065BD069
:10B60400132C00F0A080052C40F0B980D8F85480A9
:10B614006D496E4804F0B9FE18F4805F41D06C495E
:10B624006A4804F0B2FE172418F4006F04D0694984
:10B63400664804F0AAFE182418F4007F0ED0664968
:10B64400624804F0A2FE654B18F4004F9B6B04D0D3
:10B654000121634A5D4804F053FB192418F4806FF8
:10B6640004D06049594804F090FE1A2418F4807FED
:10B6740019D05D49554804F088FE1B24EB69002E5F
:10B6840040F09B80C3F3080222B96FEA53236FEAA8
:10B694004323EB6129462046FDF7A0FFBD46BDE8E4
:10B6A400F0811624C0E718F4005FE7D04F494748FB
:10B6B40004F06BFE1C24E1E7D8F85C4043484C4995
:10B6C40004F063FE600606D5D8F868300121494AC3
:10B6D4003E4804F015FBE10705D547493B4804F013
:10B6E40054FE2624CAE7A20705D54449374804F086
:10B6F4004CFE2724C2E7630705D54149334804F0CB
:10B7040044FE2824BAE7200705D53E492F4804F013
:10B714003CFE2924B2E7E10605D53B492B4804F059
:10B7240034FE2A24AAE7A20605D53849274804F09E
:10B734002CFE2B24A2E723063DD53549234804F0EB
:10B7440024FE2C249AE7D8F86C8032491F4804F070
:10B754001CFE18F0020F03D02F491C4804F015FEFC
:10B7640018F0010F03D02D49184804F00EFE18F00C
:10B77400040F83D02A49154804F007FE7EE7294ABE
:10B78400294BE8468AB00F2CC8BF13466A4627499E
:10B79400103CC2E905134FF400731384244BD461A5
:10B7A40042F8103F00234FF411510848FDF72EFED4
:10B7B4000024C54662E7252460E723F4FF7323F0E1
:10B7C400010366E7B8CE00205D19010024130100CF
:10B7D40073190100D71701008419010000ED00E07E
:10B7E4009D190100B2190100CD190100371801009B
:10B7F400F01D0100091E0100191E01002F1E010089
:10B804004D1E0100681E0100851E01009A1E0100E4
:10B81400B41E0100C71E0100E11E0100111F01003A
:10B824003F1F0100FA190100E5190100DB1A0100AC
:10B834000400000100B5104B89B05A6AD86C00921C
:10B844009A6A20F005000192DA6A694602921A6B3C
:10B8540003925A6B04929A6B0592DA6B06921A6CF5
:10B864001B6D07929B0748BF40F00400FFF7BCFE26
:10B8740009B05DF804FB00BFB8CE00202DE9F0410B
:10B88400A2B005460E461746984605F01FF970B952
:10B89400114B1B785BB14FF0FF324FF0FF330F4871
:10B8A40001F0D8FF044618B16FF0830510E00124BD
:10B8B400684604F04AFA424639463046289BA8476F
:10B8C4000546684604F042FA14B9044802F0D4F874
:10B8D400284622B0BDE8F081E5D3002050C6002000
:10B8E400002300B589B0CDE9063303AB04930423E8
:10B8F40003900593A9B10B6806934B680793022341
:10B90400111E18BF01210848CDE9002140F2F5318C
:10B9140004AA00F00BF80028B8BF012009B05DF8B4
:10B9240004FB0123ECE700BF0501004010B4B1F5AE
:10B93400004F029C0ED2042B0CD8042C0AD82404E9
:10B9440044EA0364134644EA0102014610BC034876
:10B95400FFF794BF6FF0800010BC7047217C00009B
:10B9640030B50468ACB1B4FA84F30122C3F11F0307
:10B97400DBB29A4024EA0202D0E8EF5FA54204D188
:10B98400C0E8EC2FBCF1000FF6D1EAD102480B70ED
:10B9940030BD0248FCE700BF0000AD0B0200AD0B58
:10B9A40010B50368CB40DB0710D401238B40026839
:10B9B40043EA0201D0E8EF4F944204D1C0E8EC1FFF
:10B9C400BCF1000FF6D1F2D1014810BD0148FCE7EB
:10B9D4000000AD0B0400AD0B014BC3F80405704728
:10B9E400007001400146014800F01AB9A8C50020C2
:10B9F400F7B5064618B301281FD104224FF480730B
:10BA0400014629480025C0F80813012142F21074A8
:10BA140002F1804203F1804303F5A04302F5A04202
:10BA240011601D608E421B681F4F8DF8071008BF00
:10BA34000DF1070546B1012E23D003B0F0BD0C2251
:10BA44004FF482730221DCE7D7F8183403F480330F
:10BA54003DB9002BF1D0012004F0C8FC013CF3D126
:10BA6400EBE7D7F8182402F003022A70002BE4D085
:10BA74009DF807000128E0D104F0B8FC013CD9D1BD
:10BA8400DBE7D7F80C3403F480333DB9002BD4D072
:10BA9400012004F0ABFC013CF3D1CEE7D7F80C2431
:10BAA40002F00102E1E700BF00500040044B1A79A4
:10BAB40022B9012218601A7102487047024870477F
:10BAC4002CCF00200000AD0B0C00AD0B08B5074BCC
:10BAD4001B6833B10520FEF72FF910B90520FEF7D6
:10BAE40009F90122024BC3F8182508BD2CCF002008
:10BAF4000050004010B510B1012848D010BD294BAA
:10BB0400D3F81814D3F81824C90324D502F0030376
:10BB1400022B05D0012B02D00020FFF769FF01237F
:10BB2400204A0220C2F8183508224FF482730021FB
:10BB340003F1804303F5A04319601C68012402F15A
:10BB4400804202F5A0421460174A12681AB3154BDA
:10BB5400C3F80403D2E7D3F81424D207DFD5D3F80B
:10BB64001C2402F00302013A012AD5D80E4A1268B5
:10BB74001AB10222C3F80423C0E7D3F80421002A2F
:10BB8400FBD00022C3F80421D3F80431B6E7002225
:10BB94004FF48073CBE71A68002AFCD019601B6845
:10BBA400ACE700BF005000402CCF0020F8B50126C0
:10BBB400194C1A4FD4F8045305B9F8BDB5FA85F0F9
:10BBC400C0F11F00830003F580739BB203F180432F
:10BBD40003F5A04306FA00F21968D2B225EA020579
:10BBE4000029E9D00021022A19601B68C4F808233F
:10BBF4000DD1D4F81834D4F8183403F00303012B0E
:10BC040005D1C4F81825C4F80423A360D4E73B681D
:10BC1400C0B29847D0E700BF005000402CCF0020AE
:10BC24000079024B03EB0010FFF79ABEB0C5002069
:10BC3400036803F01F025B090260024818BF00207A
:10BC4400704700BF0025844070B5C3B20C4C083364
:10BC540034F813300546DA050E4607D5C3F34323FB
:10BC640004EBC302526854F833309847A3682BB1ED
:10BC740031462846E268BDE87040184770BD00BFF1
:10BC840034CF0020024611F0010004D003490B6AAE
:10BC940013600B6203B90020704700BF0025844085
:10BCA40010B4124AC0B2083032F81030D9051BD58E
:10BCB400C3F3432123F4F85322F81030002002F197
:10BCC4000E0434F8023F13F4807F03D0C3F34323FC
:10BCD400994209D001302028F3D1002342F83130B1
:10BCE400034810BCFFF75CBE10BC704734CF002083
:10BCF4008CCF0020F0B50446002001260746124BE5
:10BD0400124D0B449900124B8B420BD1114BD3F8BB
:10BD14007C2132B10022C3F87C21D3F87C3140F07D
:10BD24000040F0BD5A19920806FA02F2144208D0F3
:10BD3400D3F800C0BCF1000F03D01F60D3F800C0DB
:10BD440010430433E0E700BF40C4001000EFFCBF21
:10BD54000011034000100340CBB2024608460D49CF
:10BD6400083331F81330990611D599070FD40121FE
:10BD740010685B0B9940C0F80813126802EB830348
:10BD8400D3F8102522F00302C3F8102570470021D0
:10BD940004F080BB34CF0020F7B5194ECDB208357E
:10BDA40036F815300746DB070C4626D5FFF7D4FFD7
:10BDB40036F815309A0608D55A0B3B6803EB820314
:10BDC4000022C3F81025C3F810252046FFF768FFAA
:10BDD400002301A826F815300194FFF729FF019BE1
:10BDE40000EB8300D0F80022064B134043F002031B
:10BDF400C0F80032044803B0F0BD0448FBE700BFBC
:10BE040034CF0020F0F8FCFF0000AD0B0400AD0BB4
:10BE14002DE9FF41136807460C461646FBB1DFF8CF
:10BE24004881CDB2083538F8152002F02202222AC2
:10BE340022D000222046CDE900228DF80E208DF874
:10BE44000F200DF10E010DF10F0204F0DAFA38F8AB
:10BE5400153023F0020343F0010328F8153073680A
:10BE640063B393F800C058683F4AE3B2083332F82A
:10BE740013108D0702D5C8B13C4822E021F02001FF
:10BE8400C904C90C22F8131080B1BCF1030FF3D814
:10BE940070683D68406890F800E005EB8E05BCF1E1
:10BEA400000F11D1C5F810C5C5F810C532F813102C
:10BEB40021F01C0141EA8C0122F81310B3684BBB3A
:10BEC4002B4804B0BDE8F081D5F8108541EA4E3125
:10BED40028F00308C5F810853D6841F0200105EB02
:10BEE4008E05D5F8100522F8131020F4473020F4FD
:10BEF4004070C5F810052002D5F8107500F4F8500C
:10BF040040EA0C403843C5F8100502EB4E00A0F897
:10BF14005C40CBE72046D3E90067FFF7C1FE002E63
:10BF2400CED0114DD5E90023964203D19F4201D1D1
:10BF3400002209E00F480DF10F01FFF711FD0C4B32
:10BF44009842BED19DF80F20E4B205EBC203083439
:10BF54005F6035F8143045F8326043EA422343F415
:10BF6400807325F81430ABE734CF00200400AD0B08
:10BF74000000AD0B8CCF00202DE9FF4107460C4695
:10BF84001E4612B3DFF8D480CDB2083538F8153028
:10BF9400980701D4990621D413F01C0F02D05378CA
:10BFA400012B1BD001238DF80F3000232046CDE94F
:10BFB40000230DF10F01931C013204F022FA38F82A
:10BFC400153043F0030328F81530002E44D0234DD8
:10BFD400E1B2083135F81120930703D4204804B0A6
:10BFE400BDE8F081002096F800E03B6822F02002D2
:10BFF400D20403EB8E03D20CC3F8100525F81120EC
:10C00400C3F8100596F801C04FEA8E08BCF1000F82
:10C0140022D03868B6784044D0F810354FEA0C4C3A
:10C0240023F4981323F4F853C0F81035230203F4CF
:10C03400F8530CF4403C3605D0F8107543EA0C0371
:10C0440006F48016334342EA4E323B4342F0200268
:10C05400C0F8103525F811200248C0E734CF00207D
:10C064000400AD0B0000AD0B014BC3E90212704795
:10C0740034CF0020054BC9B2083133F8113099068A
:10C0840043BF5B0B024813700248704734CF002053
:10C094000000AD0B0400AD0B70B50E4C064694F8D1
:10C0A4006C50A5B94022294604F1100004F0ABFEFF
:10C0B4003068C0F87C51D0F87C3140F30730FDF78C
:10C0C40019FE0123044884F86C30A36570BD03484D
:10C0D400FCE700BF34CF00200000AD0B0C00AD0B1B
:10C0E400034B93F86C00003818BF0120704700BF61
:10C0F40034CF00200079024B03EB8000FFF750BCE3
:10C10400C0C500200079024B03EB8000FFF728BC78
:10C11400C0C5002073B5CBB20C462149083331F8B1
:10C12400133001689D0619D513F0020616D15B0B76
:10C134009C0004F580754E51495901682144D1F899
:10C14400104544F00104C1F810452AB101220168E8
:10C1540002FA03F3C1F8043302B070BDD1F804232A
:10C16400C3F38203002AA4BF4FF00042C1F80423A2
:10C17400042B11D0052B11D001A80194FFF758FD11
:10C18400019A0369D34003F00103991C204602B0CD
:10C19400BDE8704004F07EB90321F7E70221F5E71A
:10C1A40034CF00202DE9F74F4F4F0821D7F804036F
:10C1B400C0B240F00040FFF79DFD051E17DA0023D2
:10C1C4000121684600934FF00108FFF75BFDDFF89B
:10C1D4001C91009991B94FF00040FFF78BFD0121AC
:10C1E4006846FFF74FFD0028F3D125F000450124F0
:10C1F4003E4E002D63D103B0BDE8F08F91FAA1F457
:10C20400B4FA84F4E00804F1080339F813A004F044
:10C2140007021DF8003008FA02F223EA02030DF8BF
:10C22400003001A80194FFF703FD019B4FEA9A0136
:10C23400803350F82360CAF3820B4B07DA46C6F307
:10C24400014621D520465946FFF7FEFC01A801947A
:10C25400FFF7EEFC019BF6B2803350F82330C3F3B2
:10C2640001439E4207D10021204604F013F93146D0
:10C27400204604F00FF901A80194FFF7D9FC019BB3
:10C2840008FA03F30362A4E7022E0CD1032120462B
:10C2940004F000F90BF00503012BECD151462046C4
:10C2A400FFF7D2FCE7E70221204604F0F3F8BBF1E4
:10C2B400030FF3D0032EDED1BBF1020FEDE795FAA5
:10C2C400A5F3B3FA83F304FA03F225EA020503F5AE
:10C2D400A27257F8221006EB4303B3F85C00C1F3D3
:10C2E4000141FFF7B1FC84E70010034034CF002084
:10C2F40070B5084C0E462379154643B92A20FDF73C
:10C30400F9FC0123044823712660A56070BD03482D
:10C31400FCE700BFA4CF00200000AD0B0C00AD0B68
:10C32400002330B50D4A50F8234003F5A2710133C0
:10C33400082B42F82140F6D10023084A00F11C01E1
:10C3440003F5B27451F8045F0133082B42F824500A
:10C35400F6D1036CC2F8043330BD00BF00A0024024
:10C3640038B50024154D2A20C5F81045C5F81445E4
:10C37400C5F81845C5F81C45C5F82045C5F8244539
:10C38400C5F82845C5F82C45C5F89045C5F8944529
:10C39400C5F89845C5F89C45C5F8A045C5F8A44519
:10C3A400C5F8A845C5F8AC45FDF7B2FC4FF0FF331E
:10C3B400C5F80833024B1C7138BD00BF00A0024011
:10C3C400A4CF00200123024A8340C2F804337047FB
:10C3D40000A002400123024A8340C2F80833704798
:10C3E40000A00240F8B5012600270B4B0B4DD3F8F3
:10C3F4000C4304B9F8BD94FAA4F0B0FA80F006FA3C
:10C4040000F324EA0304064B82009F502B68002BA0
:10C41400EFD0A9689847ECE700A00240A4CF002021
:10C4240000A1024007B5044BCDE900011B68684632
:10C43400984703B05DF804FBB0CF0020014B18709F
:10C44400704700BFDAD30020024B1878431E5842CD
:10C4540058417047DAD3002070B503680446033BA3
:10C46400DBB2052B03D8094A52F823502DB9A06832
:10C4740058B1BDE8704000F011B804F06EF82168BE
:10C484002B46BDE87040090C184770BD30140100FC
:10C49400014B1B68184700BFC4C50020014B1B6932
:10C4A400184700BFC4C50020014B9B68184700BF54
:10C4B400C4C50020014B1868704700BFB4CF0020EA
:10C4C400002230B50B4B19680C6894420FD001EB75
:10C4D400C2039D68A8420BD14FF003020433D3E892
:10C4E400CF1F002903D1C3E8C02F0028F7D130BDE6
:10C4F4000132EAE7D4CF00202DE9F04100240646BA
:10C504000F462046DFF854803368A34201D8BDE8C3
:10C51400F08106EBC4056B68DBB2012B16D16A68A7
:10C52400B8F80030B3EB124F10D1022FA8680FD126
:10C53400FFF792FF01206B6823F0FF0343F003032E
:10C544006B60B8F800300133A8F800300134DBE741
:10C554000168090C03F0B3FFECE700BFB0D300207F
:10C5640010B5074C02216068FFF7C6FF0028F9D117
:10C5740001212068FFF7C0FF0028F3D110BD00BFE0
:10C58400DCCF002070B5072860D8DFE800F00B5F2F
:10C59400475F435F3C0400F007FF0320BDE87040A1
:10C5A400FEF72EBF03202A4BD3F81446D3F818669F
:10C5B400284B1D781870EDB2FFF740FF012D10D104
:10C5C400254B264A9C4212D0230C1B04B3F1886FDE
:10C5D4000DD0A4F58033203B022B0FD96FF0040358
:10C5E40013603146C4F30B00FFF71CFF00E0146036
:10C5F4001B4B186803F071FE0020CFE7194931F98D
:10C6040013301360F4E70024124B20461C70FFF72C
:10C6140015FFEDE7FFF7A4FF0220BFE70D4B1A78E3
:10C62400012AD0B20ED1104A1168104A8C685460A5
:10C634004968116002221A70FFF700FF084B18685E
:10C6440003F04BFEFFF78CFF0120A7E770BD00BF8E
:10C6540000A00240DCD3002001005005D8CF002008
:10C66400C4CF002084140100C0CF0020DCCF002000
:10C674000A23F7B54FF47A750C4E0D4F01933168C8
:10C68400386803F045FF044640B903F024FE40B97E
:10C69400012001A9FEF7C2FD6E30F0D1204603B09F
:10C6A400F0BD0198684303F014FEE8E7C8CF00200A
:10C6B400D0CF0020054B1B782BB9054B1968054BCF
:10C6C400186803F025BF0020704700BFDBD30020AB
:10C6D400CCCF0020D4CF002070B5164B42681B6825
:10C6E40022F0FF0242F00202C31A42601248134AC7
:10C6F4000168C3F38913D2E8DF4F651CC2E8D65F33
:10C70400002EF8D101EBC3014A6892B242EA044216
:10C714004A600268032002EBC302536823F0FF035C
:10C7240043F00103536003F0D4FD0122044BDA60AB
:10C7340070BD00BFCCCF0020D4CF0020B2D30020E6
:10C7440000A002402DE9F04F95B0382200210646A2
:10C7540003A804F058FB0223049308230693202320
:10C76400089304230D93102340250F938023012263
:10C77400CDE91153D523002159480B921393FEF7A9
:10C784001FFE0546002840F0A8800246554930792E
:10C79400FFF7AEFD03A8FFF7C3FD34686268B2F586
:10C7A4009D6F40F097806169E3680B44E16903F58C
:10C7B4009D630B44B3F5003F00F28C80206829464A
:10C7C40004F021FB33681C68D3F81C9004F53A721A
:10C7D400019204F16007444A04F1A40804F1200B17
:10C7E400B9F1000F60D1C2F800B000254FF0010A82
:10C7F4002570657084F802A0E570336840461B69B3
:10C80400636033685B69C4F814B0A360374BC4F841
:10C814001890C3F80080364BE7601F600823C4F803
:10C82400108084F8A43088F8015088F8025088F801
:10C83400035084F860307D70BD70FD7003F04BFED2
:10C84400384603F048FE2B4B04F53A7231681A60FF
:10C85400294B04F1E802C8681A60284B284E186076
:10C864000869496958609960264B2749C3F81046FE
:10C87400C3F81456254B264C1D80264B86F800A081
:10C884001D80254B029525601D611B690293029B47
:10C89400134B186803F023FD98B103236FF073045E
:10C8A4003370FFF75DFD11E09B6904F14009636497
:10C8B40033684846DB69C2F800B0236400F04CFDDD
:10C8C40093E72468002CECD1144B1C70204615B05F
:10C8D400BDE8F08F6FF01504E3E76FF02D04F5E782
:10C8E400C4CF002089C50000C0CF0020D4CF0020D1
:10C8F400D0CF0020CCCF0020C8CF0020B4CF002060
:10C90400DCD3002000A00240F0490200B2D3002092
:10C91400D8CF0020B0D3002000560040DBD3002045
:10C9240070B5164B42681B6822F0FF0242F0010208
:10C93400C31A42601248134A0168C3F38913D2E848
:10C94400DF4F651CC2E8D65F002EF8D101EBC301AE
:10C954004A6892B242EA04424A600268032002EB47
:10C96400C302536823F0FF0343F00103536003F051
:10C97400B0FC0122044B5A6070BD00BFC8CF002038
:10C98400D0CF0020B2D3002000A0024010B5FFF7A2
:10C994006FFE012400220321047081704270C27072
:10C9A400FFF7BEFF054B1C7003F0A8FDBDE8104067
:10C9B400034B47F23051186803F091BCDBD30020DD
:10C9C400C4CF002038B50A4B04461B78022BDDB2D5
:10C9D4000DD1FFF74DFE50B100220121846001709A
:10C9E40042708570C270BDE83840FFF799BF38BD0A
:10C9F400DCD30020034A126812B1002800DB104780
:10CA0400704700BFE8CF00202DE9F7430025814699
:10CA14000F461048294690461E46019302F0D0FA6C
:10CA2400041E11DB0134204603F0C2FDC9F80000E6
:10CA340068B1334642462146019602F0C1FA2846BF
:10CA44003C6003B0BDE8F0836FF01500F9E76FF0C8
:10CA54000B00F6E75013010010B50E4B04461B689B
:10CA6400A3B1FBF787FB082810D9237A3F2B0DD0FD
:10CA740009490822204604F0CEF9014630B904F1F0
:10CA840008000A22BDE8104001F0DABF4FF0FF3081
:10CA940010BD00BFE8CF0020731F0100F7B50446A6
:10CAA4000F460420002116461D4603F058FD024699
:10CAB40038B914B1204603F07DFD6FF00B0003B0CC
:10CAC400F0BD00206FF0580314600D4C13735073C5
:10CAD4009073D073207031460320576003F05FFDDC
:10CAE4004FF0FF3301932378AB4201D10020E6E7F6
:10CAF400022001A9FEF792FB0028F4D0DFE700BF73
:10CB0400DDD30020F8B5054600240F4F57F8046B19
:10CB14002846314604F0B8F928B90134042CF5D17B
:10CB24004FF480300DE06CB1A31E012BF8D83046D1
:10CB3400FBF720FB0A220021284401F00BFF40EA06
:10CB44000440F8BD2046FCE748140100014B18607E
:10CB5400704700BFE8CF00200FB42DE9FF410A9CC5
:10CB6400FFF772FC00284AD0002C4BD0284E294FE6
:10CB74003168386803F0D5FB002846D1264D31686A
:10CB8400286803F0ACFB002836D122460BAB03A97E
:10CB940002A80193FFF738FF044658B1286803F050
:10CBA4009CFB386803F0BBFB204604B0BDE8F041B1
:10CBB40004B07047029C2046FFF74EFF022306464E
:10CBC400012220460399FFF769FF04460028E5D1B6
:10CBD400DFF84880D8F80000FFF794FF0446D8F83F
:10CBE400000003F0E3FC286803F077FB002CD8D1A5
:10CBF4003046FFF7FFFED4E76FF00A04D1E74FF0A9
:10CC0400FF34D1E76FF00D04CEE76FF00A04CBE7F1
:10CC140000D00020F8CF0020FCCF0020F0CF00206F
:10CC240038B5C3680446A72B01D0206810E0032957
:10CC340007D0042926D0022902D10122154B1A70EB
:10CC440038BD144B00681A78022A05D10028F7D0A1
:10CC5400BDE8384003F0AABC0F4D2A6862B12B68C6
:10CC64009847002320682B6003F0A0FC0B4B186846
:10CC7400BDE8384003F031BB094A10606168516077
:10CC84000222DCE7074B1B68002BCED000689847D4
:10CC9400CBE700BFDDD30020E4CF0020FCCF002091
:10CCA400F0CF0020ECCF002010B400F11C03D3E837
:10CCB400EF2F511EC3E8E41F002CF8D1012A0CDC2D
:10CCC400074BD0E8EF2FC0E8E13F0029F9D16422F7
:10CCD400002110BC043004F096B810BC704700BFAB
:10CCE4001EF1010030B5024600236825054905FB05
:10CCF40003F460180C59944203D00133082BF6D185
:10CD0400002030BD04D0002010B50446043003F0E8
:10CD140040FD606C08B1FEF797FB064BD4E8EF2F9B
:10CD2400C4E8E13F0029F9D12046BDE81040FFF7EF
:10CD3400BBBF00BF1EF1ADDE2DE9F8430F4C064624
:10CD44000025A0464FF068090D4B0E4F187023685C
:10CD5400BB420CD009FB058393F8202066F34512EF
:10CD640083F82020A36B13B1204603F05CFC01354B
:10CD7400082D04F16804EAD1BDE8F88304D000204A
:10CD8400DED300201EF1010010B5436904461BB92F
:10CD940003F0B6FD23684360044B186803F09DFA62
:10CDA4002046BDE8104003F0ADBD00BF44D30020D1
:10CDB400F8B548F20F03994205460E4640D022D8F2
:10CDC40048F20D03994233D048F20E03994233D00E
:10CDD4000069FFF787FF044610B3B6F5004F1FD96B
:10CDE400A6F50046013E0B2E1AD8DFE816F0AE0079
:10CDF400E800B600B600B6003A013A01B600C40035
:10CE0400190019000B0149F2040399421CD0B1F531
:10CE1400104F3FD9C068FFF765FF0446002848D18A
:10CE24002868002800F02D81BDE8F84003F0BEBB5F
:10CE3400BDE8F840FFF7A8BFBDE8F84003F0B9BC6F
:10CE4400BDE8F84003F0B3BC0369082B00F2198174
:10CE5400DFE813F01000160009000E001600170199
:10CE6400170118001E000020BDE8F840FFF764BF5A
:10CE74000120F9E70021E868BDE8F84003F063BC4D
:10CE84000121F8E70021E868BDE8F84003F067BC39
:10CE94000121F8E70069FFF725FF04460028BFD009
:10CEA40048F281039E42BBD10146284600F0ECF8CB
:10CEB40056E049F202039E4200F0CD8037D803F0D9
:10CEC40003FC0746E0B91020FEF7B6FA0646B8B1EF
:10CED4003946102203F097FF2B6873606B68338127
:10CEE400698A002900F0C8802A8A05F1140003F039
:10CEF40069FBF060002840F0BF803046FEF7A4FADA
:10CF0400286803F053FB204603F0AFFB58B12046DA
:10CF140003F0DAFB38B994F8203043F0800384F846
:10CF240020300C23A361204603F0A4FB18E049F24F
:10CF340003039E423DD049F282039E427FF470AFC8
:10CF44000146284600F0B8F80AE06B692BB9284678
:10CF540003F0D6FCAA6943681A60284603F0D2FCA1
:10CF6400204603F0BCFB002800F08B802046BDE87F
:10CF7400F84003F058BB90F8203043F0010380F8E8
:10CF8400203003F088FB18B13E4B186803F0A5F974
:10CF940094F82030204623F00A0384F8203003F06C
:10CFA4009EFB10B1204603F03EFB2046FFF7ACFE8B
:10CFB400D3E7286969280BD16823A361D0E790F8E7
:10CFC4002030EE686FF3410380F82030686918B1AF
:10CFD40003F045FCA061C3E7204603F050FB28B9E9
:10CFE40094F8203043F0040384F82030204603F002
:10CFF40046FB0028B4D0002EB2D00021204600F019
:10D0040079F8ADE76B69F3B9284603F079FCAA69AE
:10D0140043681A60426892F8203043F0040382F8AF
:10D024002030436822691A61436862695A618368DF
:10D034004BB105F10C0205F1300152F8040B8A42A0
:10D0440043F8040BF9D194F82230002B85D0013B2E
:10D0540084F8223081E790F82230013380F82230BE
:10D064007EE7284603F04CFC6B6913B9AB69436057
:10D0740073E74FF0FF33FAE73146204603F0EBFA4B
:10D084006EE7F8BD48D3002010B543690C467BB168
:10D0940091F820306FF3C30381F82030406903F026
:10D0A400DEFB044BA061BDE81040186803F015B91D
:10D0B40010BD00BF48D3002010B591F820300C46B5
:10D0C4006FF3C30381F82030006960B9DBB223F049
:10D0D400140343F0140381F82030054BBDE81040DD
:10D0E400186803F0FAB803F0BAFBA061F5E700BFD3
:10D0F40048D300202DE9F743DFF8FC900446D9F823
:10D104000000019103F0EBF8074650B1019B002B9E
:10D1140070D11023A3614FF0FF37384603B0BDE848
:10D12400F083606CD8B1FBF725F8461C94F84B806B
:10D1340031464FEA880808F10C0003F010FA05465E
:10D1440078B9204603F0ACFA08B16923A361D9F891
:10D15400000003F0C2F86920FEF728F9DBE73E4639
:10D16400E4E723684246036194F8483004F14C0133
:10D17400037594F84A30183000F8023C94F84930AA
:10D1840000F8033C94F84B3000F8013C03F02EFE09
:10D19400F6B13246616C286803F05AFE6E6094F86A
:10D1A4002030042043F008032A4647F2810184F822
:10D1B400203003F0F4F9204603F072FA0028ACD1D1
:10D1C400204603F068FA40B9A0690028A5D0C3E757
:10D1D4002E706E70AE70EE70E0E7022001A9FEF7CB
:10D1E4001DF810F10B0F05D00028E9D00028B8BFB6
:10D1F4004042B1E77420AFE748D300202DE9F04165
:10D20400056807460C463DB101F47043B3F5005F71
:10D2140004D1404BC3E90015BDE8F0813E4E3368AC
:10D2240063B144F20402914264D00CD844F2020384
:10D2340099424ED044F20303994253D03868BDE872
:10D24400F04103F0B3B944F2012221F48073934214
:10D254000FD044F203139942F0D1304C206808B146
:10D2640003F0A4F901222E4B1A70256004203368C0
:10D2740026E0DFF8B080D8F8000008B103F096F992
:10D2840044F201339C420CBF0322022295F85170F0
:10D29400254B264C1A70C8F8005017F0080533685F
:10D2A400227810D01AB9052098470123237007F07B
:10D2B4004107012F02D102203368984701203368C7
:10D2C400BDE8F0411847002AF1D0062098472570A0
:10D2D400EDE7174C206808B103F068F903203368C0
:10D2E4002560EDE70D4C206808B103F05FF90022DA
:10D2F4000B4BB9E72A78032AA0D8DFE802F002052D
:10D3040007090720984799E70820FBE70920F9E770
:10D314000A20F7E75CD300204CD3002050D3002030
:10D32400DFD3002058D30020E0D30020E1D3002035
:10D3340054D3002030B4074B1C6844B1436885893A
:10D34400A4460268C1899BB2E8B230BC604730BCD5
:10D35400704700BF64D3002000210122074B1970DD
:10D36400074B1A70074B1970074B1960074B19606C
:10D37400074B18600748FEF723B800BFE2D300202C
:10D38400E4D30020E3D300206CD3002070D300202A
:10D3940080D3002068D30020024B186808B102F043
:10D3A4009CBF704768D3002070B4284B1B68196970
:10D3B40058691A7C00221A745C7C5A749C7C9A7496
:10D3C400DC7CDA741C7D1A755C7D5A759C7D03299E
:10D3D4009A75DC7DDA7529D0042929D001290FD169
:10D3E40085681B4E954210D11A7A012100221972C8
:10D3F400597A5A72997A9A72DA7A6FF05F02DA720B
:10D40400144B70BC186802F068BF911C00EB8101DA
:10D414004C682178622907D0633918BF012149007B
:10D4240046F821400132DDE70121F9E7187ADEE709
:10D43400187A1972597A5A72997A9A72DA7A6FF05A
:10D444005F02DA720122044B1A70D9E780D30020FC
:10D4540074D3002068D30020E3D3002010B5044621
:10D46400FBF712FF03480121034A02F040FC204667
:10D4740003F08CFA24130100A11F01002DE9F843E5
:10D4840004460D4600AFEFF31188202383F312887E
:10D49400BFF36F8F0428294A98BF294BE9468AB005
:10D4A4009668117C98BF53F820306A4688BF254B94
:10D4B400C2E9073140F2013323489384234BC2E984
:10D4C400050442F8103F00234FF431512048FBF784
:10D4D4009DFFCD4645B1EB69C3F3080323B1012198
:10D4E4001C4A1B4802F003FC2EB1304603F0F7FA45
:10D4F40008B1037803B91848E9468AB06A46174B5D
:10D50400D061C2E9053640F201331384144B42F86A
:10D51400103F00234FF411510D48FBF777FF2946C4
:10D52400CD462046FFF79AFF88F31188BFF36F8F2B
:10D534003046FCF783FBBD46BDE8F88384D3002066
:10D5440058140100B01F0100C61F010005000001AE
:10D5540024130100EE1F0100BE1F01000F20010073
:10D564000400000138B50A4B53F82040013053F849
:10D574002050A54200D838BD606830B1037FDB0776
:10D5840001D403F00BFA0834F3E723689847FAE769
:10D594006C140100012270B5294B032086B01A7067
:10D5A400FFF7E0FFFCF70CF80420FFF7DBFF254C46
:10D5B400254D2646AE4204F1300410D300F072FD2E
:10D5C400204C224EAC4226D300F080FDFAF728FF0F
:10D5D4001F4A137B23F00103137306B070BD54F884
:10D5E4000C3C059354F8103C049354F8143C0393F6
:10D5F40054F8183C029354F81C3C019354F8203C12
:10D60400009354E90A2354E90C0100F019FB54F87F
:10D61400303C5E65CDE7D4E90A23B3F1FF3F08BF90
:10D62400B2F1FF3F05D052EA0301206803D100F0B4
:10D6340043FE3034C6E73146183000F0D3FFF8E734
:10D64400E5D300205012010050120100D50B010057
:10D65400D8CB002008B50348034A0021121A03F06E
:10D66400B4F908BD78C60020E8D3002000230122C5
:10D6740070B586B0CDE904230F220193CDE90232BF
:10D6840014234FF4A0720E4D0E4E03FB00550E49A9
:10D6940006EBC016044602FB00110C4B3046009505
:10D6A40000F0CEFA737B2C7423F004037373084BDD
:10D6B400013403EBC423EE606B6006B070BD00BFA1
:10D6C40084D3002058CB0020E8DE0020A30A010008
:10D6D400E8D60020BFB50020FFF744FF2A4B03F52E
:10D6E400006282F3088883F30A880024E023274D2C
:10D6F400274F85F82230EC772C766C76AC7685F85B
:10D7040020406B6A43F4E0236B6285F82340FCF706
:10D7140013FAFCF795FB4FF0FF33AB62EB62FCF7B7
:10D72400A7FDFCF7B1FBFBF70FFD1A4800F016FB51
:10D7340003F020F90120FFF715FF0220164DFFF733
:10D7440011FF00F013FD154B15495D61154B4FF4A6
:10D754008052059301232846CDE90343CDE90144D2
:10D764003B46009400F06CFA06466A7B284622F099
:10D7740004026A7303F0EFF92046FFF777FF3A4695
:10D7840031462846FCF73CFBE8D6002000ED00E0DB
:10D7940099D5000058CC0020D8CB002084D3002099
:10D7A40028E000207120010038B5064C064DAC423B
:10D7B40001D3002038BD2046D4E9011203F04BF90F
:10D7C4001434F4E73CC6002050C600201FB5054CB5
:10D7D400CDE9002302940A46002103F0FAF804B0CC
:10D7E40010BD00BF17F40000F8B50C468368054669
:10D7F40093F90E1000AFA14223D05A7B6E4612F06B
:10D804001F0F8CB014BF6E2079206A46DFF838C031
:10D81400C2E90804C2F814C0DFF830C09162C2E95A
:10D8240006C3072342F8103F4FF46451084800230D
:10D83400FBF7ECFD2146B546A86800F09BFBBD460E
:10D84400F8BD0020FBE700BF79200100DB210100C7
:10D85400241301002DE9F04F85B004469246994601
:10D8640002AFEFF3118B202383F31288BFF36F8F82
:10D87400C368774D83B18268A9688A4230D05AEA76
:10D8840009032FD18BF31188BFF36F8F6FF00F0053
:10D894000C37BD46BDE8F08FAA6892F90E10AA684D
:10D8A4000133A260A8686D468CB02161E36002AACE
:10D8B400C2E908430723674E91625661664EC2E986
:10D8C400066042F8103F00234FF464516348FBF7AD
:10D8D4009DFDAD468BF31188BFF36F8F0020D7E712
:10D8E4000169DCE791F90E6092F90E30C7F804D0B3
:10D8F4009E42A8BF1E466FF07E0388B09E42B8BF0A
:10D904001E4602AA564BDFF8508153610423C2E934
:10D91400068042F8103F00234FF404514F48FBF7B0
:10D9240075FDA368D7F804D093F90E30B34240F3E1
:10D93400858031462046FFF757FF0646CDE900A90A
:10D9440059462246474800F0F3FAEB468AB082462D
:10D954000DF10809444B4A46C9E905380523C9E9CC
:10D96400074042F8103F00234FF424513B487A60AB
:10D97400FBF74CFDDD46BAF1000F14BF79236E238B
:10D98400A9688AB0C9F8243006233848C9E90714BD
:10D99400C9E90508C9F8103000234FF444517A68E6
:10D9A4002E48FBF733FDDD46BAF1000F96D08AB05E
:10D9B400AB6802AAC2E9073405232D49C2E9051858
:10D9C40042F8103F00234FF424512448FBF71EFD76
:10D9D400DD46EFF31189202383F31288BFF36F8FA1
:10D9E400A3686BB3236825699C420AD04BB193F9B1
:10D9F4000E309D42A8BF1D466FF07E039D42B8BF06
:10DA04001D46EA4688B002AA1A4BD461C2E9053819
:10DA1400042342F8103F4FF4045110480023FBF74D
:10DA2400F5FC2946D5462046FFF7DEFE40B14946BF
:10DA34000C4800F011FB6FF00A0029E700267DE78F
:10DA4400002EF4D189F31188BFF36F8FF3E700BF81
:10DA540084D30020AE200100ED2101002413010035
:10DA6400DD200100E6D30020FF2001002321010076
:10DA7400412101005C2101002DE9F843836805463A
:10DA840000AF002B6ED03A4A926893426DD16C4637
:10DA94008AB06A46C368136205233649364E51611B
:10DAA400C2E9066042F8103F00234FF42451334882
:10DAB400FBF7ACFCEB68A546012B05D9013BEB60F9
:10DAC4000020BD46BDE8F883EFF31188202383F3DB
:10DAD4001288BFF36F8F28462969FFF785FE2C68EB
